:020000040800F2
:10000000500E002049010008691C0008DD0E0008A0
:10001000651C00086D0B0008D52A000800000000D0
:10002000000000000000000000000000CF1E0008DB
:10003000C50B0008000000000D1D0008B91F0008D6
:100040006301000863010008630100086301000800
:1000500063010008630100086301000863010008F0
:1000600063010008630100086301000863010008E0
:1000700063010008630100086301000863010008D0
:1000800063010008630100086301000863010008C0
:10009000630100086301000863010008C70B000842
:1000A00063010008630100086301000863010008A0
:1000B000492100086301000863010008630100088A
:1000C0006301000863010008630100086301000880
:1000D0006301000865270008630100086301000848
:1000E0006301000863010008630100086301000860
:1000F0006301000863010008630100086301000850
:10010000630100086301000863010008630100083F
:10011000630100086301000863010008630100082F
:10012000630100086301000863010008630100081F
:10013000DFF810D000F056FB0048004723430008CA
:10014000AFF30080500E0020064880470648004765
:10015000FEE7FEE7FEE7FEE7FEE7FEE7FEE7FEE777
:10016000FEE7FEE7E920000831010008D2B201E015
:1001700000F8012B491EFBD270470022F6E710B5AC
:1001800013460A4604461946FFF7F0FF204610BD05
:100190002DE9FE4F804681EA0300C00F0C46009017
:1001A00021F0004123F00045B8EB0200A94105D23F
:1001B0004046214690461C460B46024623F000402E
:1001C000104347D0270DC7F30A00C3F30A5102902A
:1001D000401A019040286BDAC3F3130040F4801BEF
:1001E0000098924620B10023D2EB030A63EB0B0B7D
:1001F00001985946C0F14002504600F0FEF906460B
:100200000D4650465946019A00F016FA10EB0800C8
:100210006141002487EA115284EAE7731A4340D00F
:10022000009A62B3019A012A4FEA075215DC001BBB
:1002300061EB02014FF0004202EA0752CDE90042B1
:10024000001C41F5801132462B4600F04DFA03B0F8
:10025000BDE8F08F40462146F9E7001B61EB020143
:10026000001C41F5801300185B412018A2F500170F
:1002700047EB030140EAD570B6196D4111E06D08F6
:100280004FEA360645EAC0754FEA0752001B61EB9C
:100290000201001C41F5801149084FEA30000019A5
:1002A000514132462B4603B0BDE8F04F00F00DBA85
:1002B0000098012240000023D0EB020263EBE073C0
:1002C000009821464FEAE074B8EB000061EB0401AE
:1002D000E9E783F000435BE781F0004158E72DE94F
:1002E000FE4F81EA030404F0004421F00041009431
:1002F0004FF0000B23F0004350EA01045ED052EAB5
:1003000003045BD0C3F30A54C1F30A552C44A4F28E
:10031000F3340194A0FB0254C1F3130141F48011A2
:10032000C3F3130343F4801301FB024400FB034EA9
:10033000840A970A44EA815447EA8357A4FB076872
:1003400002958D0A05FB07854FEA932C04FB0C549C
:100350002705029D4FEA065847EA1637B5EB080510
:100360006EEB070C870E920E47EA811742EA831262
:10037000A7FB0201B6EB0B0164EB00042B0D43EA73
:100380000C335E1844EB1C50DA465146E7FB020181
:10039000C5F313044FEA0B3343EA14534FEA043214
:1003A000019C43EA0603A4F10C040294009CCDE9ED
:1003B00000B400F099F903B0BDE8F08F00200146C9
:1003C000F9E72DE9F04D81EA030404F0004B21F038
:1003D000004514464FF0000A23F0004150EA0502A0
:1003E00020D054EA01021DD0C5F30A570246C5F3D6
:1003F0001303C1F31300C1F30A5640F4801543F40C
:100400008013A7EB0608101BD64608F2FD3873EBE5
:10041000050002D308F1010801E092185B41B8F130
:10042000000F03DA00200146BDE8F08D00204FF4F4
:100430008011064684460EE0171B73EB050705D3B3
:10044000121B63EB050306434CEA010C49084FEA13
:10045000300092185B4150EA0107EDD152EA0300E7
:1004600012D082EA040083EA0501084305D0101B7C
:10047000AB4106D20122002306E000224FF00043E8
:1004800002E06FF0010253101AEB06004CEB08512A
:1004900010EB0A0041EB0B01BDE8F04D00F015B97F
:1004A0000EB5C10F80EAE0700844CA07002140F28F
:1004B00033438DE80E000A460B4600F015F903B0F1
:1004C00000BD0EB540F2334102910021CDE900118B
:1004D0000A460B4600F008F903B000BDC1F30A520A
:1004E00010B5C1F3130140F2FF3341F480119A4279
:1004F00001DA002010BD40F233439A42A2F23342A7
:1005000003DC524200F088F810BD904010BD00F0AE
:10051000004230F000400AD0C10D01F56071C0F317
:10052000160042EA0151C2084007114370470020FB
:100530000146704701F0004330B421F0004150EA19
:10054000010206D00A0DA2F56072C1F31301002A60
:1005500002DC30BC00207047440F44EAC104C100F3
:10056000E01830BC00EBC25000F078B830B50B4654
:10057000014600202022012409E021FA02F59D42D3
:1005800005D303FA02F5491B04FA02F52844151EA7
:10059000A2F10102F1DC30BD2DE9F05F054600203B
:1005A00092469B4688460646814640241BE02846E4
:1005B00041464746224600F02FF853465A46C01A95
:1005C000914110D311461846224600F016F82D1A14
:1005D00067EB01084F4622460120002100F00DF88C
:1005E00017EB00094E41201EA4F10104DFDC484650
:1005F00031462A464346BDE8F09F202A04DB203AD4
:1006000000FA02F1002070479140C2F1200320FA65
:1006100003F3194390407047202A04DB203A21FA63
:1006200002F00021704721FA02F3D040C2F120020B
:100630009140084319467047202A06DBCB17203A21
:1006400041FA02F043EAE07306E041FA02F3D040D7
:10065000C2F1200291400843194670470029A8BF03
:100660007047401C490008BF20F00100704710B4DB
:10067000B0FA80FC00FA0CF050EA010404BF10BC90
:10068000704749B1CCF1200421FA04F411FA0CF1BD
:1006900018BF012121430843A3EB0C01CB1D4FEAF6
:1006A00000614FEA102042BF002010BC704700EBF1
:1006B000C35010440029A4BF10BC7047401C49001F
:1006C00008BF20F0010010BC704710B5141E73F174
:1006D000000408DA401C41F1000192185B411A4302
:1006E00001D120F0010010BD2DE9F04D92469B464E
:1006F00011B1B1FA81F202E0B0FA80F220329046F4
:10070000FFF77BFF04460F4640EA0A0041EA0B016F
:1007100053465A46084313D0114653EA010019D0F4
:10072000C8F140025046FFF777FF05460E46504697
:1007300059464246FFF761FF084305D0012004E017
:1007400020463946BDE8F08D0020054346EAE076B4
:100750002C4337430A986305E40AA0EB0800002203
:10076000FD0A44EA47540A3002D500200146E9E771
:10077000010510196941DDE9084500196941BDE825
:10078000F04DA2E7C1F30A52C1F3130140F2FF3367
:1007900041F480119A4202DA00200146704740F28B
:1007A00033439A42A2F2334202DC5242FFF734BF93
:1007B000FFF723BF30B5041E71F1000404DB4FF0D6
:1007C0000044404264EB0101141E73F1000405DB98
:1007D0001C464FF00043524263EB0403994208BFAA
:1007E000904230BD064C074D06E0E06840F0010342
:1007F00094E8070098471034AC42F6D3FFF79CFC0E
:1008000078450008984500082DE9F04F85B04FF075
:100810000009002438E01F4A32F81410E0B200F05A
:10082000FDF8E0B200F0B9F805282CD1E0B20522BD
:10083000694600F03BF8012825D10521684601F002
:1008400094F98146E0B200F0C3F88246CB464FEA05
:10085000E97109EB11510813FFF722FE07464FF02B
:1008600066320D4BFFF73BFD0546FFF763FECAF806
:100870000000DAF80000FFF74AFE05462A460B465C
:1008800006A002F029F9641C062CC4DB05B0BDE803
:10089000F08F00005409002066660A40566F6C74A1
:1008A0006167653D25660D0A000000002DE9F047EF
:1008B00007460D4614464FF00008C1460026B246D2
:1008C0000023384600F084F8024612B90020BDE843
:1008D000F08750899189884207DB50899189401AB5
:1008E0001FFA80F94FF0000808E050899189401AFA
:1008F000118908441FFA80F94FF00108A14501DA77
:100900000020E4E7B8F1000F30D010899189401A37
:1009100086B2A6420DDB002308E091891944506895
:1009200030F8110025F81300581C83B2A342F4DB01
:1009300029E0002308E091891944506830F811003B
:1009400025F81300581C83B2B342F4DBA01B1FFA36
:1009500080FA002307E0506830F81300F11825F8FA
:100960001100581C83B25345F5DB0CE0002308E06E
:1009700091891944506830F8110025F81300581C6B
:1009800083B2A342F4DB90892044118990FBF1FCEF
:1009900001FB1C009081012099E710B5034600245B
:1009A000184600F015F802460AB9002010BD50891B
:1009B0009189884204DB50899189401A84B205E00C
:1009C00050899189401A1189084484B22046EDE784
:1009D000014609B90B487047012901D10A48FAE7D5
:1009E000022901D10948F6E7032901D10848F2E7B5
:1009F000042901D10748EEE7052901D10648EAE7B5
:100A000000BFE8E778090020A0090020C8090020FD
:100A1000F0090020180A0020400A002030B50446E2
:100A20000B4600252046FFF7D3FF02466AB15189E5
:100A3000506820F811305089401C80B250811189D3
:100A4000884201DB002050810125284630BD00B5D9
:100A500001221146052000F001F800BD10B518B1C3
:100A6000094B1B7B012B00D110BD074B588099808F
:100A7000DA800023044C2381638163700123237097
:100A8000024C236100BFEFE72E0900200010014057
:100A900070B5002413E00F4810F8345000EBC40088
:100AA00046780D48405D304100F0010028B1094909
:100AB00001EBC4014868804703E0601CC4B2052C08
:100AC000E9DB00BF052C03D10121044800F0E7F960
:100AD00070BD000050450008680000200010014073
:100AE0007047000010B500240121064800F0D9F934
:100AF0002146641CC82904DD00240121014800F0BE
:100B0000CEF910BD001001407047000070B50346DB
:100B10000C4600201BE0834217D10E4D15F8301013
:100B200005EBC0056A78012C08D10B4D6D5C0126E0
:100B30009640F6B23543084E755406E0064D6D5C9E
:100B400001269640B543044E7554451CE8B205286D
:100B5000E1DB70BD504500086800002000B50122AF
:100B600011460520FFF77AFF00BD704700BFFEE782
:100B7000014609B90B487047012901D11046FAE72F
:100B8000022901D10020F6E7032901D10020F2E774
:100B9000042901D10020EEE7052901D10020EAE770
:100BA0000020E8E7D800002008B525208DF80000D7
:100BB00000208DF8020001208DF80300684601F046
:100BC00063F808BD704710B5802000F00DF808B13B
:100BD00000F032FE802000F001F810BD01490860ED
:100BE0007047000014040140014600200022074B1A
:100BF0001B6803EA0102054B14331B680B4013B159
:100C00000AB1012000E0002070470000000401400C
:100C1000002123498279002A3AD00A4612680368E3
:100C20009A430B461A600A1D126803689A430B1D0B
:100C30001A60027911440A6803681A430A60184A64
:100C40000832126803689A43154B08331A601A1D5C
:100C5000126803689A43124B0C331A604279102AC7
:100C60000ED11A1F126803681A430D4B08331A601D
:100C70001A1D126803681A43094B0C331A600DE001
:100C80000749427911440A6803681A430A6005E07B
:100C9000027911440A6803689A430A6070470000A9
:100CA0000004014030B500228B071C0F0F2303FA0C
:100CB00004F20B4B8C1053F824309343084C8D10E6
:100CC00044F8253023468C1053F824308C07240F29
:100CD00000FA04F42343024C8D1044F8253030BD53
:100CE000080001402DE9F0410246002500260020C1
:100CF00000230024002791F803C00CF00F0591F8A1
:100D000003C00CF0100CBCF1000F03D091F802C02E
:100D10004CEA050591F800C0BCF1000F31D0146811
:100D200000202BE04FF0010C0CFA00F3B1F800C0EA
:100D30000CEA03069E4220D183004FF00F0C0CFA00
:100D400003F7BC4305FA03FC4CEA040491F803C022
:100D5000BCF1280F06D14FF0010C0CFA00FCC2F8D0
:100D600014C00AE091F803C0BCF1480F05D14FF060
:100D7000010C0CFA00FCC2F810C0401C0828D1D3AA
:100D80001460B1F800C0BCF1FF0F34DD54680020DE
:100D90002EE000F1080C4FF0010808FA0CF3B1F84E
:100DA00000C00CEA03069E4221D183004FF00F0CD5
:100DB0000CFA03F7BC4305FA03FC4CEA040491F86F
:100DC00003C0BCF1280F05D100F1080C08FA0CF89B
:100DD000C2F8148091F803C0BCF1480F07D100F1AC
:100DE000080C4FF0010808FA0CF8C2F81080401CFB
:100DF0000828CED35460BDE8F0810000F0B50A4663
:100E0000002300240021002500F00046B6F1004F29
:100E100002D11D4EF16901E01B4E7168C0F303451C
:100E200083B200F44016B6F5401F08D121F070617E
:100E3000154E766826F07066134F7E6012E000F45F
:100E40008016B6F5801F06D1032606FA05F4A143E5
:100E500041F0706106E0460D360103FA06F6B14333
:100E600041F0706122B1460D360103FA06F63143B6
:100E700000F00046B6F1004F02D1034EF16101E0EF
:100E8000014E7160F0BD00000000014002460020EC
:100E900093680B400BB1012000E0002070474161D6
:100EA0007047016170470AB1016100E0416170471C
:100EB00010B5002408E0601CC4B2142002F056FDF6
:100EC000FA2C01D1204610BD80210348FFF7DEFF38
:100ED0000028F0D12046F6E70014014000BFFEE7ED
:100EE00021B1028842F48062028004E002884FF659
:100EF000FF331A400280704770B502460024002577
:100F000000230020958A138B1B0445EA030626F074
:100F10007F4404EA01068E4201D1012000E0002056
:100F200070BD21B1028842F00102028004E0028813
:100F30004FF6FE731A4002807047000008B5012189
:100F4000480500F039FF0121082000F045FF40204E
:100F5000ADF8000003208DF802001C208DF803007E
:100F600069460848FFF7BEFE8020ADF80000032068
:100F70008DF802001C208DF8030069460148FFF738
:100F8000B1FE08BD000C014021B1028842F480721C
:100F9000028004E002884FF6FF631A400280704727
:100FA00021B1028842F40072028004E002884FF608
:100FB000FF531A40028070470CB502460020002300
:100FC0000193009300920B0F019321F07F41019B4D
:100FD0001BB1009B1433009303E0090C009B1833F2
:100FE0000093009B1B680B400BB1012000E0002028
:100FF0000CBD00002DE9F04385B004460D460026E7
:10100000B1460427DFF8CC80A6884FF6C0700640B2
:10101000684600F0F1FEDDF808802F48B8FBF0F0DC
:101020001FFA80F946EA0906A68020884FF6FE716D
:101030000840208000262949286888420CD8286862
:101040004000B8FBF0F087B2042F00DA04273E43DB
:1010500009F10100208427E0E8884BF6FF718842FF
:1010600006D1286800EB4000B8FBF0F087B209E039
:10107000286800EBC00101EB0010B8FBF0F087B26C
:1010800047F48047C7F30B0008B947F0010747F45E
:10109000004006434FF4967009FB00F04FF47A715C
:1010A00090FBF1F0401C2084A683208840F00100D2
:1010B000208026884FF6F5300640A88869890843C5
:1010C00006432680A88929890843208105B0BDE808
:1010D000F083000000127A0040420F00A086010059
:1010E00010B5FFF72BFF00F075F910BD2DE9F041A9
:1010F00005460E4617461C464FF4204064490860DA
:101100000AE063490868411E614A116020B909205C
:1011100000F092F9BDE8F0814FF400315D48FFF72F
:101120004BFF0028EDD101215A48FFF72DFF4FF466
:1011300080505749086009E055490868411E544AE3
:10114000116018B90A2000F077F9E3E752495148D5
:10115000FFF7D2FE0028EFD0E9B200224D4800F0A0
:101160005FF94FF480504A49086009E0484908682F
:10117000411E474A116018B90B2000F05DF9C9E71C
:1011800046494448FFF7B8FE0028EFD00121414806
:10119000FFF7C7FE39463F4800F04BF94FF4805047
:1011A0003B49086009E03A490868411E384A116025
:1011B00018B90C2000F040F9ACE73849891C3548D3
:1011C000FFF79AFE0028EED001213248FFF7DCFE3F
:1011D0004FF480502E49086009E02D490868411EEF
:1011E0002B4A116018B90D2000F026F992E72A4920
:1011F0002848FFF781FE0028EFD0E9B201222548F8
:1012000000F00EF94FF480502149086009E02049B0
:101210000868411E1E4A116018B90E2000F00CF932
:1012200078E71D49491C1B48FFF766FE0028EED0F1
:1012300026E0012C07D100211648FFF751FE0121BD
:101240001448FFF7ADFE4FF420401149086009E053
:101250000F490868411E0E4A116018B9032000F0BA
:10126000EBF857E70C493F310A48FFF745FE0028E5
:10127000EED0084800F0D0F83070761C601E84B2C2
:10128000002CD6D101210348FFF72AFE012041E7B7
:101290007800002000540040010003008200070095
:1012A0002DE9F04105460C4616461F464FF42040F6
:1012B000444908600AE043490868411E414A1160F8
:1012C00020B9042000F0B8F8BDE8F0814FF40031F7
:1012D0003D48FFF771FE0028EDD101213A48FFF7A4
:1012E00053FE4FF480503749086009E035490868DB
:1012F000411E344A116018B9052000F09DF8E3E75B
:1013000032493148FFF7F8FD0028EFD0E9B200225A
:101310002D4800F085F84FF480502A49086009E014
:1013200028490868411E274A116018B9062000F0B4
:1013300083F8C9E726492448FFF7DEFD0028EFD0EF
:101340003146214800F075F84FF480501D4908607F
:1013500009E01C490868411E1A4A116018B90720A3
:1013600000F06AF8B0E71A49891C1748FFF7C4FD76
:101370000028EED01AE02178134800F05AF8641CD7
:101380004FF480500F49086009E00E490868411E7B
:101390000C4A116018B9082000F04EF894E70C4987
:1013A000891C0948FFF7A8FD0028EED0381EA7F1D8
:1013B0000101CFB2DFD101210348FFF7F1FD012088
:1013C00082E7000078000020005400400100030084
:1013D000820007001FB50020ADF804004BF6FF7037
:1013E000ADF806000A20ADF808004FF48060ADF8B3
:1013F0000A000001ADF80C00054800906946054858
:10140000FFF7F8FD01210348FFF78BFD1FBD00002A
:10141000801A0600005400400146088AC0B2704796
:1014200012B141F0010102E04FF6FE731940018252
:10143000704701827047000010B50446214602A0A3
:1014400001F04AFB002010BD49324320B5C8B4FD6D
:10145000B3ACCAB1216572726F72436F6465203D8F
:101460002025640000B585B00121042000F0B4FC03
:101470000121880300F0B0FC18208DF813004FF410
:101480000070ADF8100003208DF8120004A9184870
:10149000FFF728FC04208DF813000002ADF81000BF
:1014A00004A91348FFF71EFC4FF4E1300090002020
:1014B000ADF80400ADF80600ADF80800ADF80C007A
:1014C0000C20ADF80A0069460A4801F0B7F901227C
:1014D00040F22551074801F08CF90121054801F03F
:1014E00052F94021034801F045F905B000BD000064
:1014F000000801400038014010B5002400F044F914
:101500000446682C6ED018DC382C73D00CDC182CF8
:1015100071D004DC022C3DD0102C6DD199E0222C2E
:1015200030D0302CF9D17BE0422C6ED04A2C6DD0DB
:10153000522C6CD05A2CF0D19BE0A82C42D008DC65
:101540007A2C7ED0902C45D0982C56D0A22CE4D169
:1015500008E0B02C5CD0C22C24D0E02C2AD0E22CA5
:10156000DBD107E0214654A001F0B6FA57A001F004
:10157000B3FA9FE0214650A001F0AEFA56A001F068
:10158000ABFA97E021464CA001F0A6FA55A001F075
:10159000A3FA8FE0214648A001F09EFA54A001F082
:1015A0009BFA87E0214644A001F096FA52A001F090
:1015B00093FA7FE0214640A001F08EFA52A001F09C
:1015C0008BFA77E021463CA001F086FA51A001F0A9
:1015D00083FA6FE0214638A001F07EFA4FA001F0B7
:1015E0007BFA67E0214634A001F076FA4EA001F0C4
:1015F00073FA5FE035E01CE05BE021462EA001F0CD
:101600006BFA4BA001F068FA54E03AE041E048E0A0
:10161000214629A001F060FA47A001F05DFA49E0F7
:10162000214625A001F058FA45A001F055FA41E005
:1016300007E0214620A001F04FFA43A001F04CFA48
:1016400038E021461CA001F047FA41A001F044FA1D
:1016500030E0214618A001F03FFA3FA001F03CFA2B
:1016600028E0214614A001F037FA3DA001F034FA39
:1016700020E0214610A001F02FFA3BA001F02CFA47
:1016800018E021460CA001F027FA39A001F024FA55
:1016900010E0214608A001F01FFA37A001F01CFA63
:1016A00008E0214604A001F017FA35A001F014FA71
:1016B00000E000BF00BF10BD0D0A206B65795F76AA
:1016C000616C3D2564200D0A000000000D0A2050C9
:1016D0004F574552200D0A000D0A204D454E55200A
:1016E0000D0A00000D0A2054455354200D0A000035
:1016F0000D0A202B200D0A000D0A20524554555288
:101700004E200D0A000000000D0A207C3C3C200DFC
:101710000A0000000D0A203E200D0A000D0A203E9E
:101720003E7C200D0A0000000D0A2030200D0A002A
:101730000D0A202D200D0A000D0A2043200D0A005D
:101740000D0A2031200D0A000D0A2032200D0A005A
:101750000D0A2033200D0A000D0A2034200D0A0046
:101760000D0A2035200D0A000D0A2036200D0A0032
:101770000D0A2037200D0A000D0A2038200D0A001E
:101780000D0A2039200D0A0010B5002400F024F8BD
:1017900008B9002010BD0B4800680A49C988445C9C
:1017A0000848C088401C80B20649C88089888842A1
:1017B00006DB214604A001F08FF900200149C88012
:1017C0002046E7E73C090020497264615F64617468
:1017D000613D25640D0A000000200B4909890A4A71
:1017E000D288914206DB08490989074AD288891ABA
:1017F00088B208E004498988034A12891144024AE0
:10180000D288891A88B270473C09002070B5024618
:10181000130EC2F30745C2F30724D6B2E843C0B2A1
:10182000984207D133B9F043C0B2A04200D10C7046
:10183000012070BD0020FCE7F8B50024002500263B
:101840000020009055E080212B48FFF71FFB012866
:101850004FD1FFF72DFB0446FA2C00DB4AE0C82CE1
:1018600003DBFA2C01DA012532E00A2C03DB322CEF
:1018700001DA00262CE0322C03DB642C01DA01268D
:1018800026E0642C24DBC82C22DC01201B490870D4
:101890001B480078401C1A4908701A480078401C00
:1018A000184908701648017817A001F015F9154875
:1018B00001781CA001F010F9694621480068FFF783
:1018C000A5FF012803D19DF8000000F03BF811E0CE
:1018D000012D0ED11A4800684000194908600846D9
:1018E000006830440860002005490870012005495F
:1018F0000870A8E700BFF8BD001401407100002087
:1019000070000020720000200D0A20B0B4BCFCB4AE
:10191000CECAFD6672616D655F636E743D2564209D
:101920000D0A00000D0A20D6D0B6CFB4CECAFD698C
:1019300073725F636E743D2564200D0A0000000021
:101940007400002010B504460A4800680949098956
:10195000445408480089401C80B20649088189889F
:10196000884206DB214604A001F0B6F800200149B8
:10197000088110BD3C0900204972646144617461B2
:101980003D25640D0A0000000448006800F00100D5
:1019900008B1012070470020FCE700000808014062
:1019A00010B54FF400510448FFF770FA012800D138
:1019B00010BD0020FCE70000001001407CB50024B1
:1019C00002F060FA02F090F80446012C28D1FFF7EB
:1019D0003EF8334800680A3031490860084600681C
:1019E000FF2801DD002008602D48006842F21071D8
:1019F0004843FA2190FBF1F543F698200323294A46
:101A00000121CDE90005284802F06CFA274800883A
:101A100000EB4000264908444078244908802FE024
:101A2000042C2DD101210220FFF770F80021084677
:101A300000F06CF81A4800680A381949086008462E
:101A40000068002801DAFF2008601548006842F2AB
:101A500010714843FA2190FBF1F543F698200323D7
:101A6000104A0121CDE900050F4802F03BFA0F486A
:101A7000008800EB40000E49084480780B4908803C
:101A80000A4800880B490988884208D0074800881E
:101A9000084908800548018807A001F01DF87CBDB1
:101AA0004400002000040040000C01403E000020E3
:101AB0002000002040000020675F75734375724965
:101AC0006E6465783D25640D0A0000000C480068CE
:101AD00080F020000A4908600A4801880088401CFC
:101AE000084A1080642909DD002011460880202062
:101AF0000349091D08600120091D086070470000A6
:101B00000C0C01404E0000207047704770B5034632
:101B10000C4600201BE0834217D10E4D15F8301003
:101B200005EBC0056A78012C08D10B4D6D5C0126D0
:101B30009640F6B23543084E755406E0064D6D5C8E
:101B400001269640B543044E7554451CE8B205285D
:101B5000E1DB70BD28450008480000200220014953
:101B600008607047140C014070472DE9F0430246AD
:101B70000C4600250027A846AC460026002300217D
:101B800002B114B90020BDE8F08315881788002140
:101B90001DE032F8119032F8110078B10DB932F829
:101BA000115032F81100A84201DA32F8115032F81F
:101BB0001100B84206DD32F8117003E00CF10100AB
:101BC0001FFA80FC32F811000344481C81B2A14284
:101BD000DFDBA4EB0C0086B2022E07DD5B1BDB1BF8
:101BE000B01EB3FBF0F01FFA80F80FE0022E02D116
:101BF000C3F34F080AE00020061E02D10120061E92
:101C000002D04FF0000801E04FF000084046BAE76C
:101C100070B5002413E0104810F8345000EBC400F5
:101C200046780E48405D304100F0010028B10A4975
:101C300001EBC4014868804703E0601CC4B2052C76
:101C4000E9DB00BF052C06D12020054908600120F2
:101C500008600220086070BD284500084800002088
:101C6000100C014000BFFEE7704708B517208DF843
:101C7000000002208DF8010001208DF80300684665
:101C800000F002F808BD000070B5002100230F220B
:101C9000C47804B3154C246804F4E064C4F5E0642B
:101CA000210AC1F10403CA40447804FA03F184789C
:101CB0001440214309010E4C0678A155047804F024
:101CC0001F050124AC4005786D11AD0005F1E0253C
:101CD000C5F8004109E0047804F01F050124AC4078
:101CE000044D0678761145F8264070BD0CED00E0F5
:101CF00000E400E080E100E002490143024A116093
:101D0000704700000000FA050CED00E0704700008D
:101D100010B5002400BF3DE004EB44001F4901EB77
:101D2000C000C18804EB44001C4A02EBC000C0881C
:101D3000401C04EB4402194B03EBC202D08004EBBD
:101D400044001A4602EBC0008088814206DB04EBA7
:101D5000440102EBC1014869804706E004EB4401FD
:101D60000E4A02EBC1010869804704EB44000B49AD
:101D700001EBC000C08804EB4401084A02EBC1013A
:101D80004988884205DB002004EB440102EBC101D5
:101D9000C880641C012CBFDB10BD00005000002077
:101DA0002020014908607047100C014020200149A3
:101DB00008607047140C014029B1064AD2690243F9
:101DC000044BDA6104E0034AD2698243014BDA61D1
:101DD000704700000010024029B1064A9269024390
:101DE000044B9A6104E0034A92698243014B9A6171
:101DF000704700000010024030B50021002200248E
:101E000000232D4D6D6805F00C0121B1042905D08A
:101E1000082923D105E0294D056022E0274D056002
:101E20001FE0254D6D6805F47012234D6D6805F4B3
:101E30008034022505EB92421CB9214D55430560C3
:101E40000BE01D4D6D6805F400351DB11C4D55436B
:101E5000056002E0194D5543056002E0174D05602D
:101E600000BF00BF144D6D6805F0F0010909154D64
:101E70006B5C0568DD4045600F4D6D6805F4E06101
:101E8000090A104D6B5C4568DD4085600A4D6D6840
:101E900005F46051C90A0B4D6B5C4568DD40C560B7
:101EA000054D6D6805F44041890B074D6B5CC568B5
:101EB000B5FBF3F5056130BD0010024000127A0059
:101EC00000093D007C0000208C0000207047704716
:101ED00010B500F001F810BD0CB500200190009085
:101EE0003348006840F480303149086000BF304812
:101EF000006800F4003000900198401C01900098A8
:101F000018B90198B0F5A06FF1D12948006800F424
:101F1000003010B10120009001E0002000900098F6
:101F2000012843D12348006840F01000214908608F
:101F30000846006820F0030008600846006840F08A
:101F4000020008601A48406819494860084640681D
:101F500048600846406840F4806048600846406831
:101F600020F47C1048600846406840F4E81048605F
:101F70000846006840F08070086000BF0C480068A8
:101F800000F000700028F9D00948406820F00300F4
:101F9000074948600846406840F00200486000BFBA
:101FA0000348406800F00C000828F9D10CBD00007F
:101FB000001002400020024010B500F001F810BDF2
:101FC00010B51B48006840B119480068401E184908
:101FD000086010B9012017490870002408E004EBDC
:101FE0004401154A02EB810002F05CF8601CC4B2A7
:101FF000042CF4DB11480068401C104908600846B6
:1020000000686FF00041884202D100200B4908604F
:1020100001F062FF0A480078401CC0B2084908700D
:102020000A2803DB0020087001F048FF10BD000003
:102030000000002004000020A8000020080000206C
:102040001C00002010B5002100200022214B5B68FD
:1020500003F00C0121B1042906D0082928D107E09A
:102060001D4B1E4C236027E01B4B1C4C236023E0C0
:10207000184B5B6803F47010164B5B6803F48032F6
:10208000022303EB904022B9154B4343134C2360CA
:102090000DE0104B5B6803F4003323B1104B434356
:1020A0000E4C236003E00C4B43430C4C236003E0D5
:1020B000094B0A4C236000BF00BF064B5B68C3F3AB
:1020C0000313084CE15C054B1B68CB40034C2360B9
:1020D00010BD00000010024000127A0090000020A5
:1020E00000093D009400002010B51348006840F03E
:1020F00001001149086008464068104908400E492F
:102100004860084600680E4908400B4908600846C8
:10211000006820F4802008600846406820F4FE0033
:1021200048604FF41F008860FFF7D2FE4FF0006058
:102130000449086010BD0000001002400000FFF8D4
:10214000FFFFF6FE08ED00E010B50221480700F0A1
:1021500076F858B10221480700F050F80022022119
:10216000480700F07DF81B480068804704210807F5
:1021700000F065F858B10421080700F03FF800228C
:102180000421080700F06CF8134800688047082114
:10219000C80600F054F858B10821C80600F02EF81F
:1021A00000220821C80600F05BF80C480068804750
:1021B0001021880600F043F858B11021880600F07D
:1021C0001DF800221021880600F04AF80448006833
:1021D000804710BD0C0000201000002014000020DB
:1021E0001800002021B1028842F08002028004E041
:1021F00002884FF67F731A4002807047CA430282FA
:10220000704721B1028842F00102028004E0028896
:102210004FF6FE731A400280704731B1B0F8442087
:1022200042F40042A0F8442005E0B0F84420C2F394
:102230000E02A0F8442070470146888C704730B5E4
:102240000246002000230024158A05EA010395892F
:1022500005EA010413B10CB1012000E0002030BDFB
:102260001AB183890B43838102E083898B43838185
:102270007047000070B5002400220023058C4FF643
:10228000FE7635400584028C8388048B4FF68F756B
:102290002C40B51E2C400D882C43751E2A400D89FC
:1022A0002A434D882A43144DA8420BD0134DA8420F
:1022B00008D0134DA84205D0124DA84202D0124DAD
:1022C000A84213D14FF6F7752A404D892A434FF69D
:1022D000FB752A408D882A434FF6FF652B404FF649
:1022E000FF552B408D892B43CD892B43838004835D
:1022F000CD888586028470BD002C014000340140E9
:102300000040014000440140004801400A460021CD
:10231000018B4FF6F773194011430183704700009A
:1023200070B5002400220023058C4FF6EF7635406F
:102330000584028C8388048B48F6FF752C404FF689
:10234000FF452C400D884FF6FF7606EA05252C4305
:102350004FF6DF752A400D8906EA05152A434D8898
:1023600006EA05152A43154DA84202D0144DA8428D
:102370001DD14FF67F752A404D894FF6FF7606EA4C
:1023800005152A434FF6BF752A408D8806EA0515C4
:102390002A434FF6FF352B404FF2FF752B408D89B6
:1023A00006EA85052B43CD8906EA85052B43838004
:1023B0000483CD880587028470BD0000002C014095
:1023C000003401400A460021018B4FF2FF7319408F
:1023D0004FF6FF7303EA022319430183704700009D
:1023E00070B5002400220023058C4FF6FF663540AF
:1023F0000584028C8388848B4FF68F752C404FF6B2
:10240000FC752C400D882C434FF6FF552A400D8952
:102410004FF6FF7606EA05252A434D8806EA05258C
:102420002A43154DA84202D0144DA8421DD14FF2A7
:10243000FF752A404D894FF6FF7606EA05252A43A7
:102440004FF6FF352A408D8806EA05252A434EF6C9
:10245000FF752B404DF6FF752B408D8906EA05155B
:102460002B43CD8906EA05152B4383808483CD88D1
:102470008587028470BD0000002C014000340140BB
:102480000A460021818B4FF6F7731940114381836F
:102490007047000070B5002200230024058C4EF622
:1024A000FF7635400584038C8488828B48F6FF755F
:1024B0002A404FF6FF452A400D884FF6FF7606EA80
:1024C00005252A434DF6FF752B400D8906EA053593
:1024D0002B434D8806EA05352B430B4DA84202D00D
:1024E0000A4DA84208D14BF6FF752C408D894FF656
:1024F000FF7606EA85152C4384808283CD88A0F878
:102500004050038470BD0000002C014000340140A5
:102510000A460021818B4FF2FF7319404FF6FF737B
:1025200003EA02231943818370478186704701873C
:10253000704781877047A0F84010704700220288DA
:102540001D4B98420ED01D4B98420BD0B0F1804FDE
:1025500008D01B4B984205D01A4B984202D01A4B18
:10256000984204D14FF68F731A404B881A43174B89
:10257000984207D0164B984204D04FF6FF431A40BA
:10258000CB881A4302808B8883850B8803850A4B8E
:1025900098420BD0094B984208D00E4B984205D078
:1025A0000D4B984202D00D4B984201D10B7A038615
:1025B0000123838270470000002C01400034014059
:1025C0000004004000080040000C004000100040E3
:1025D0000014004000400140004401400048014018
:1025E000FEB50024002502A9002001F063FE0028AA
:1025F0007DD09DF80800313809280AD2DFE800F0C4
:10260000050A141C232830787E000A21012001F0DD
:10261000BDFD7AE0012001F02DF90446012C02D124
:102620003BA000F059FA70E001F0E6FA05462946B1
:102630003CA000F051FA68E03F4A4FF47A71012063
:1026400001F03EFD61E001210020FFF75FFA5CE050
:1026500001210846FEF75AFA38A000F03DFA54E08E
:10266000394800880A303849088008460088FF2821
:1026700001DD002008803448018834A000F02CFAE5
:102680003148008842F210714843FF2190FBF1F677
:1026900044F620600223304A2021CDE900062F486D
:1026A00001F020FC2848008842F210714843FF21C5
:1026B00090FBF1F644F620600323274A0121CDE97F
:1026C0000006264801F00EFC1F48008842F21071F7
:1026D0004843FF2190FBF1F644F6206004231E4A94
:1026E0000221CDE900061D4801F0FCFB0DE00DE0E4
:1026F000012211460520FEF7B1F906E00120184934
:1027000048610021FEF702FA00BF00BFFEBD0000D5
:10271000C8EDBCFEB6A8CAB1C6F731206973206FF8
:102720006B0D0A00CFB5CDB3D4CBD0D0CAB1BCE4C9
:1027300025640D0A000000002D4300084265657005
:10274000206973206F6B00001E000020647574798F
:102750003A25640D0A00000000040040000C01400E
:102760000010014010B5024800F0F5F810BD00005F
:10277000D800002001F40072B2F5007F00D100BF44
:10278000CA430280704721B1828942F4005282819B
:1027900004E082894DF6FF731A408281704770B55C
:1027A0000246002400230025002040F66A16B142AC
:1027B00000D100BFC1F3421501F01F03012606FA44
:1027C00003F3012D02D19689334006E0022D02D198
:1027D000168A334001E0968A33400C12012606FA2D
:1027E00004F41688344013B10CB1012000E000203D
:1027F00070BDF0B50346002400260025002040F6F9
:102800006A17B94200D100BF1846C1F3421401F063
:102810001F06012707FA06F5012C01D10C3004E050
:10282000022C01D1103000E014301AB107682F4398
:10283000076002E00768AF430760F0BD2DE9F0478D
:1028400086B005460E460024A24600BFA1460027DA
:10285000B08900B100BF2F462C8A4CF6FF700440AF
:10286000F08804432C82AC894EF6F3100440B08803
:1028700031890843718908430443AC81AC8A4FF61F
:10288000FF400440B0890443AC8201A8FFF7B4FACA
:102890001F48874202D1DDF810A001E0DDF80CA04E
:1028A000A88900F4004040B10AEBCA0000EB0A100E
:1028B00031684900B0FBF1F807E00AEBCA0000EB11
:1028C0000A1031688900B0FBF1F86420B8FBF0F021
:1028D00004012009642101FB1089A88900F400404B
:1028E00040B1322000EBC900B0FBF1F000F007006E
:1028F000044308E0322000EB09106421B0FBF1F042
:1029000000F00F0004432C8106B0BDE8F087000002
:102910000038014001468888C0F308007047C1F3C1
:1029200008028280704710B50246538B0BB9002015
:1029300010BD148B9068005D0870108B401C80B235
:102940001083D489A04201DB00201083508B401EED
:1029500050830120ECE770B5044640F22551206811
:10296000FFF71DFFE0B12068FFF7D4FFC5B2E18A91
:10297000A0684554E08A401C80B2E082E189884228
:1029800001DB0020E082608BE189884202DA608B03
:10299000401C6083606A10B12846616A884700BFA6
:1029A00040F227712068FFF7FAFE08B3A08A60B9E9
:1029B000002240F227712068FFF71BFF012240F23E
:1029C00026612068FFF715FF37E0638A6268D15CF3
:1029D0002068FFF7A4FF608A401C80B26082A18952
:1029E000884201DB00206082A08A401EA08224E091
:1029F00040F226612068FFF7D2FEF0B1A08A50B9FC
:102A0000002240F226612068FFF7F3FE206AA0B1A1
:102A1000206A804711E0638A6268D15C2068FFF712
:102A20007EFF608A401C80B26082A189884201DBFF
:102A300000206082A08A401EA08270BDF8B50446C6
:102A40000E46174600251DE008E0A08A0090A089E8
:102A5000BDF80010884200DD01E000BFF5E700BFCF
:102A6000705D228A61688854208A401C80B220826E
:102A7000A189884201DB00202082A08A401CA0821C
:102A8000681C85B2BD42DFDB012240F2277120685D
:102A9000FFF7AFFEF8BD00000A480B4908600B487D
:102AA00048600B4888604FF480608881C8810020AE
:102AB00008824882C882088348838882C861086285
:102AC0004862704700380140D80000200001002013
:102AD0000005002000BFFEE70FB4054B10B503A9A9
:102AE000044A029800F0DAF810BC5DF814FB00000C
:102AF00011430008A400002002E008C8121F08C10A
:102B0000002AFAD170477047002001E001C1121F6E
:102B1000002AFBD1704700002DE9FF5F82B0002141
:102B2000DDE90430020DDDF840B0034318D044F66F
:102B30001050A2F2FF3242431514119801281FD001
:102B4000A5EB0B00401C5FEA000A4FF000064E4F59
:102B5000DFF83891B046504615D5CAF1000413E0AD
:102B6000119801244AA3012801D16FEA0B010298B0
:102B7000119AC0E90031C0E9024206B0BDE8F09FF9
:102B8000CBF10000DFE704460021404A491842EB40
:102B90000450CDE9001012E0E00707D032463B4672
:102BA00040464946FDF79BFB8046894632463B46F8
:102BB00010461946FDF793FB06460F466410002C9D
:102BC000EAD1DDE90401DDE90023BAF1000F06DAFC
:102BD000FDF785FB42464B46FDF781FB05E0FDF71F
:102BE000F0FB42464B46FDF7ECFB04460E46002246
:102BF000284BFDF7DFFD03D84FF0FF30014607E01B
:102C00000022254B20463146FDF7C2FAFDF7BAFDFA
:102C1000102409E0002C0ADB0A220023FDF7BCFC8B
:102C2000039B30321A55641E50EA0102F2D1641C33
:102C3000039AC4F111031444119A012A03D001220A
:102C400008430DD10AE0084304D000204FF0110BD7
:102C5000119072E7A3EB0B056D1E0DE05B4504DDE3
:102C60004FF0000205F1010504E003DA4FF0000225
:102C7000A5F10105002AECD002981199C0E90231B2
:102C8000C0E9004579E70000000014400000F03F73
:102C9000300000000000F0430000E03F2DE9FF4F4E
:102CA00095B09A46884606460025EEE1252877D15C
:102CB00000242746F94A0121039400E0044316F852
:102CC000013F203B01FA03F01042F7D130782A2867
:102CD00011D06FF02F033078A0F13002092A16D8F6
:102CE000039A44F0020402EB820203EB4202104416
:102CF000761C0390EFE758F8042B0392002A03DABE
:102D0000504244F40054039044F00204761C30789E
:102D10002E2816D116F8010F44F004042A280DD0ED
:102D20006FF02F023078A0F13003092B09D807EBA0
:102D3000870302EB4303C718761CF3E758F8047BBC
:102D4000761C30786C280FD006DC4C2817D0682809
:102D50000DD06A2814D104E0742810D07A280FD13D
:102D60000DE044F400140AE044F4801401E044F45B
:102D700040147278824202D104F58014761C761CCD
:102D8000307866280BD013DC582877D009DC00286F
:102D900075D04528F6D04628F4D047281AD193E1BB
:102DA00018E0632835D0642879D0652812D18BE1EA
:102DB000702873D008DC6728F1D069286FD06E289E
:102DC0000DD06F2806D1ACE073282CD0752874D0B4
:102DD000782853D05246179990476D1C54E1C4F39C
:102DE0000250022809D003280DD0D8F8001004287A
:102DF0000DD00D6008F1040846E1D8F80010EA177C
:102E0000C1E90052F6E7D8F800100D80F2E70D7026
:102E1000F0E718F8041B8DF8001000208DF8010071
:102E2000EB46012003E058F804BB4FF0FF30610788
:102E30004FF0000102D40DE009F101018946B942C9
:102E40000FDA8145F8DB1BF809100029F4D108E0FE
:102E500009F1010189468142FADB1BF809100029BA
:102E6000F6D103985346A0EB090721463846179A36
:102E700000F080FA284400EB090507E044E008E18F
:102E80000DE01BF8010B524617999047B9F1010963
:102E9000F7D2534621463846179AF2E039E00A2124
:102EA000C4F302524FF0000B0091022A06D058F8EA
:102EB000040BC117032A09D00AE023E008F1070038
:102EC00020F00702F2E80201904605E000B2C117C7
:102ED000042A01D140B2C117002906DA0A460021AE
:102EE000404261EB02012D2202E0220504D52B2293
:102EF0008DF80420012203E0E20701D02022F7E749
:102F0000914657E00A2100E010214FF0000B00919C
:102F10000BE010214FF0000B44F00404082700914F
:102F200003E008204FF0000B0090C4F30252022A85
:102F300005D058F8040B0021032A08D008E008F156
:102F4000070020F00702F2E80201904603E080B299
:102F5000042A00D1C0B24FF0000922072AD53278E6
:102F6000702A07D0DDF800C08CF0100C5CEA0B0C66
:102F700005D00EE040228DF80420012208E050EA3E
:102F8000010306D030238DF804308DF8052002228D
:102F90009146009B83F0080353EA0B030AD150EAE1
:102FA000010201D1620705D530228DF804204FF0CF
:102FB00001097F1E3278582A04D039A20C920CAA3B
:102FC00002920BE03BA2F9E75B46009AFDF7E4FAB8
:102FD0000C9B9B5C029A521E0292137050EA0102F3
:102FE000F2D1029804A9081A00F1200B600702D55B
:102FF00024F4803400E001275F4502DDA7EB0B00DD
:1030000000E0002000EB0B01009003984944401AB7
:103010000390E00306D453462146179A039800F024
:10302000A9F90544002706E001A85246C05D17999A
:1030300090476D1C7F1C4F45F6DBE0030CD55346D3
:103040002146179A039800F095F9054404E03020D2
:103050005246179990476D1C0099481E0090002910
:10306000F5DC08E00298029952460078491C02916A
:10307000179990476D1CBBF10001ABF1010BF1DC1E
:103080005BE100F065F90544761C307800287FF498
:103090000DAE19B02846BDE8F08F000009280100E8
:1030A00030313233343536373839616263646566BE
:1030B0000000000030313233343536373839414280
:1030C0004344454600000000600700D4062708F18D
:1030D000070020F00700F0E80223804603F0004CD0
:1030E0005FEA0C0001D097A009E0200501D596A069
:1030F00005E0E00701D095A001E0AFF24C0013908D
:10310000307823F0004365280CD006DC452809D030
:1031100046281DD047287FD13BE0662818D0672875
:103120007AD136E00021112F01DB112000E0781C5C
:10313000CDE9000104A90CA8FFF7EEFCDDE90D01C3
:103140000C9A4FF0000B07F10109109200914EE02C
:103150004FF000400097CDE9011004A90CA8FFF73B
:10316000DBFCDDE90D020C9B0F994FF0000B914643
:103170001093009211B9791C00EB0109B7EB09001B
:1031800003D4C0F1FF3B07F10109A9EB070001904F
:1031900042E0012F00DA01270021112F01DD11206B
:1031A00000E03846CDE9000104A90CA8FFF7B4FC03
:1031B000DDE90D010C9A00914FF0000BB946109219
:1031C00021070FD4009A4A4503DA914601E0A9F19C
:1031D0000109B9F1010F05DD109AA9F10101515C56
:1031E0003029F4D0B84202DA10F1040F03DA0121D9
:1031F000CDE9011010E0002803DC8344A9EB0001B5
:1032000002E0411C494500DD8946A0EB0B00401C53
:1032100001904FF000400290200705D401984845E6
:1032200002DB4FF0FF30019000208DF84B00029838
:103230000DF14B07B0F1004F25D002200C902B2050
:103240000D90029800280CDA404202902D200D903B
:1032500007E00A210298FDF789F93031029007F85A
:10326000011D0C99481E0C900029F2DC02980028E0
:10327000EFD1791E0D980870307800F0200040F0F2
:10328000450007F8020D11A8C01BC01D029013983D
:10329000007800B1012000EB0901019801EBE07119
:1032A000029801440398401A401E0390E00306D49C
:1032B00053462146179A039800F05CF8054413988A
:1032C000007818B15246179990476D1CE00323D53A
:1032D00053462146179A039800F04CF805441BE02A
:1032E000BBF1000F07DB0098584504DD10981799D3
:1032F00010F80B0001E017993020524690470198D2
:103300000BF1010B401E05F10105019004D12E20A7
:103310005246179990476D1CB9F10001A9F10109B6
:10332000DEDC05E017F8010B5246179990476D1C3B
:103330000299481E02900029F4DC53462146179A50
:1033400003989EE62D0000002B00000020000000E6
:103350002DE9F041044600251E461746880404D492
:1033600005E039462020B0476D1C641EF9D528467B
:10337000BDE8F0812DE9F041044600251E46904647
:10338000C80301D5302700E02027880404D505E0D4
:1033900041463846B0476D1C641EF9D52846BDE845
:1033A000F08100002DE9F84300F092F8054600F0A6
:1033B00031F9814600F09AF9044600F089F9064691
:1033C0004846FDF7A4F807463A460B4618A0009673
:1033D000FFF782FB4DF60310844203D11EA0FFF7D6
:1033E0007BFB04E0C4F3090121A0FFF775FB4FF458
:1033F00080712448FDF74AFD10B923A0FFF76CFB4C
:10340000E00B18B124A0FFF767FB02E025A0FFF74F
:1034100063FB05F0010010B125A0FFF75DFBC5F3CC
:10342000400010B126A0FFF757FBBDE8F88300006D
:103430000AB9E2D5D5C7BFB6C8CAC7A3BA252E32C6
:10344000664C75780ABAECCDE2C7BFB6C8CAC7A346
:10345000BA25640D0A000000495220CCABC7BF203A
:10346000505320CAFDBEDDCEDED0A70D0A000000FD
:10347000BDD3BDFCBEE0C0EBCAC7A3BA25640D0A2C
:1034800000000000001C0140D3D0D6D0B6CFB2FA65
:10349000C9FA0D0A00000000CEEFCCE5BDD3BDFC9B
:1034A0000D0A0000CEEFCCE5D4B6C0EB0D0A00004B
:1034B000414C5320B2FAC9FAD6D0B6CF0D0A00005B
:1034C000505320B2FAC9FAD6D0B6CF0D0A00000088
:1034D00008B56A460121084600F053FF9DF8000038
:1034E00008BDF8B505460C46172D73D2DFE805F088
:1034F0000C121821722B31373D72434E7272727268
:10350000727272595F656B0022460121002000F043
:1035100038FF60E022460121022000F032FF5AE02D
:1035200022460121102000F02CFF20780609267089
:1035300051E022460121102000F023FF207800F006
:103540000F06267047E0224601211A2000F019FFDD
:1035500041E0224601211B2000F013FF3BE0224600
:1035600001211C2000F00DFF35E0224601211D2025
:1035700000F007FF2FE06A460121202000F001FF44
:103580009DF80000C0F38100207024E06A4601210C
:10359000202000F0F6FE9DF8000000F003002070EF
:1035A00019E0224601212A2000F0EBFE13E022461A
:1035B00001212B2000F0E5FE0DE0224601212C2008
:1035C00000F0DFFE07E0224601212D2000F0D9FEA9
:1035D00001E0FFE700BF00BFF8BD1CB56420ADF8F7
:1035E00000004FF47A70ADF8020001208DF804005D
:1035F0000520DDE9001200F0D5FE7820ADF80000CE
:103600004FF41670ADF802001320DDE9001200F04F
:1036100037FF1CBD2DE9F843002401210C2000F0E8
:1036200097FE814669460220FFF75BFF9DF8000088
:1036300068B94846FCF745FF07464FF066321E4B17
:10364000FCF74DFE0546FCF775FF044631E09DF89A
:10365000000001280CD14846FCF733FF0746174A03
:10366000174BFCF73CFE0546FCF764FF044620E0E0
:103670009DF8000002280CD14846FCF722FF0746BF
:103680000E4A104BFCF72BFE0546FCF753FF044691
:103690000FE09DF8000003280BD14846FCF711FF0E
:1036A0000746094A094BFCF71AFE0546FCF742FF9C
:1036B00004462046BDE8F8836666D63FB1BFEC9E5F
:1036C0003C2CB43F3C2C943F6EA301BC0512743FCC
:1036D00070B5002501210A2000F03AFE044604F0EE
:1036E0000300C4F307214518284670BD70B50025B6
:1036F00001210E2000F02CFE0446C4F3801010B906
:10370000C4F3803008B1012000E00020012803D17B
:103710004DF60310054670BDC4F30521204661F344
:103720001F10054604F4004005432846F3E738B56A
:1037300005460C46172D7ED2DFE805F00C11162C3D
:103740009842474C5198566C9898989898989884B5
:10375000898E93002146002000F0C4FE87E02146B8
:10376000022000F0BFFE82E06A460121102000F036
:1037700008FE9DF8000000F0CF0000909DF80000CA
:1037800040EA0410C0B200909DF80010102000F034
:10379000A9FE6CE0002000906A460121102000F094
:1037A000F0FD9DF8000000F0F00000909DF8000092
:1037B000204300909DF80010102000F093FE56E08A
:1037C00021461A2000F08EFE51E021461B2000F019
:1037D00089FE4CE021461C2000F084FE47E0214693
:1037E0001D2000F07FFE42E0002000906A4601218B
:1037F000202000F0C6FD9DF8000000F0F3000090CE
:103800009DF80000204300909DF80010202000F05B
:1038100069FE2CE0002000906A460121202000F083
:10382000B0FD9DF8000000F0FC0000909DF8000045
:103830002043009000E019E09DF80010202000F0E7
:1038400051FE14E021462A2000F04CFE0FE02146F4
:103850002B2000F047FE0AE021462C2000F042FE1B
:1038600005E021462D2000F03DFE00E000BF00BF36
:1038700038BD00000146042901DB0020704701EB40
:103880004100084A02EB80004078012808D100205E
:1038900001EB4102034B03EB820250700120EDE784
:1038A0000020EBE7A8000020F8B505460C462846A6
:1038B00000F034F906460121FEF78EFAADF800401B
:1038C00010208DF8030003208DF802006946284679
:1038D000FDF708FAF8BD00002DE9F84306460D464D
:1038E00014469846304600F019F907460121FEF7C4
:1038F00073FA194884420BD01848844208D01848FB
:10390000844205D01748844202D01748844207D128
:10391000204600F039F907460121FEF75DFA06E07E
:10392000204600F031F907460121FEF745FA20460E
:1039300000F0A6F807460121FDF760FAADF8005047
:1039400018208DF8030003208DF8020069463046E8
:10395000FDF7C8F9BDE8F883002C014000340140B0
:10396000004C01400050014000540140F0B50346B6
:1039700000224FF0E02675690F4E36680F4FB6FBF8
:10398000F7F606FB03F400BF4FF0E026B16910E044
:103990004FF0E026B06988420BD0884202D20E1A5E
:1039A000324402E02E1A0E4432440146A24200D3B1
:1039B00000E0EDE700BFF0BD9000002040420F00A6
:1039C00070B505462D4800EB051420688047002897
:1039D0003ED02079052802DA052020714CE02079BC
:1039E0000A2803DA2079401C207145E0A07A38B912
:1039F0000120A07205EB4501491CC8B200F04EFA47
:103A00002089002838DDE088218988420DDAE088A5
:103A1000401C80B2E080218988422DD105EB450110
:103A2000C91CC8B200F03AFA26E0E07A002823DD8B
:103A3000207B401CC0B22073E17A88421CDB00204E
:103A4000207305EB4501491CC8B200F027FA13E0CA
:103A50002079052802DD052020710AE0207918B1BF
:103A60002079401E207104E0A07A012801D10020B5
:103A7000A0720020E080207370BD000000090020CB
:103A8000014600200F4A914201D10F4818E0B1F1E0
:103A9000804F01D10D4813E00D4A914201D10D48EC
:103AA0000EE00D4A914201D1881409E00B4A91427F
:103AB00006D00B4A914203D00A4A914200D000BF7F
:103AC00070470000002C0140400016000001180063
:103AD0000004004000081A0000080040000C0040EC
:103AE00000100040001400400B48807A0A4AD27A45
:103AF000904201D1002070470748807A064A115C45
:103B00001046807A401CC0B290720A2801DB002067
:103B100090720846EFE700002009002001460020CF
:103B2000124A914201D104201CE0114A914201D174
:103B3000082017E00F4A914201D1102012E00E4AEE
:103B4000914201D120200DE00C4A914201D1402048
:103B500008E00B4A914201D1802003E0094A9142DA
:103B600000D1881540F001007047000000080140B6
:103B7000000C0140001001400014014000180140F9
:103B8000001C01400020014001460020134A9142E0
:103B900001D1C81421E0124A914201D148141CE01D
:103BA000B1F1804F01D1012017E00E4A914201D1BD
:103BB000022012E00C4A914201D104200DE00B4A90
:103BC000914201D1082008E0094A914201D1102018
:103BD00003E0084A914200D120207047002C0140A8
:103BE000003401400004004000080040000C004088
:103BF00000100040001400400149086870470000B0
:103C00000800002010B54FF44070FEF775F800F082
:103C1000B9F800F05DF800F009F800F029F900F0BB
:103C200027FB00F0F5FA00F0D1F810BD08B501212E
:103C30001020FEF7D1F801200949486110208DF8C5
:103C4000030003208DF802000120ADF80000694652
:103C50000348FDF747F800200249087308BD00003B
:103C6000001001402E0900207FB501210846FEF713
:103C7000A3F81548006846081448B6FBF0F085B272
:103C80004FF6FF74ADF80840ADF804500020ADF8D1
:103C90000A00ADF8060001A94FF08040FEF74EFC87
:103CA00001218807FEF7ADFA1C208DF800000420E2
:103CB0008DF8010000208DF8020001208DF803002E
:103CC0006846FDF7E1FF7FBD9000002040420F00F5
:103CD00010B500F027F800F001F810BD08B501217B
:103CE0004FF4CA70FEF778F804208DF80300032023
:103CF0008DF802000120ADF8000069460748FCF786
:103D0000F1FF4FF40050ADF8000004208DF80300DF
:103D100069460348FCF7E6FF08BD000000080140C3
:103D2000001001400021134A9172D17211730020DA
:103D300018E06421104A02EB0012118102210E4AA0
:103D400002EB0012117100210B4A02EB001291727A
:103D5000094A02EB0012D172074A02EB00121173FA
:103D6000411CC8B20228E4DB0449034A116004493B
:103D700011617047200900200009002089190008FE
:103D8000A119000808B501210820FEF725F8102028
:103D90008DF8030003208DF802002020ADF800000C
:103DA00069460948FCF79EFF0120ADF8000069460E
:103DB0000548FCF797FF0220ADF80000694602486D
:103DC000FCF790FF08BD0000000C014070B5002416
:103DD00016E0002004EB4401214A02EB8101486017
:103DE00004EB440102EB8101886004EB440102EB27
:103DF0008101487004EB440102F82100601CC4B248
:103E0000042CE6DBFEF71EF9164800684FF47A72C0
:103E1000B0FBF2F1B1F1807F00D31DE021F07F40D3
:103E2000401E4FF0E022506150170F22002807DAA1
:103E300013071E0E0C4B00F00F052D1F5E5503E0FF
:103E400013071D0E094B1D5400BF00204FF0E02248
:103E500090610720106100BFFFF706FF70BD0000F2
:103E6000A80000209000002018ED00E000E400E031
:103E700010B5FEF711FEFDF7F5FAFEF727F8FCF78F
:103E800093FE10BD10B5002404E02046FFF798FD16
:103E9000601CC4B2022CF8DB10BD00000649C97AD0
:103EA000054A50541146C97A491CC9B2D1720A292F
:103EB00001DB0021D17270472009002010B5FEF708
:103EC0008FFBFDF7A5FEFCF7E3FDFDF715FBFCF707
:103ED0009BFCFFF767FA10BD10B5FDF76FFDFDF70E
:103EE00017FF10BD2DE9FF4F87B0834614461D46CE
:103EF000DDE9146ABAF1000F0FD100212046FEF768
:103F000080F958460899FFF7CFFC002258460899D7
:103F1000FCF7C9FF0BB0BDE8F08F42F2107082458C
:103F20000DD100212046FEF76CF958460899FFF79D
:103F3000BBFC012258460899FCF7B5FFEAE72B467F
:103F4000224658460899FFF7C7FC504884420BD0D8
:103F50004F48844208D04F48844205D04E4884429E
:103F600002D04E48844203D14D48D0F8008003E08F
:103F70004B4800684FEA5008642E0AD242F20F798B
:103F800042F21070B8FBF0F0B0FBF6F0401E87B2C2
:103F900013E040F6B830864209D24FF0630964203E
:103FA000B8FBF0F0B0FBF6F0401E87B205E04FF032
:103FB0000009B8FBF6F0401E87B2ADF81470ADF8FA
:103FC00010900020ADF81600ADF812008DF8180022
:103FD00004A92046FEF7B2FA6020ADF800000120E7
:103FE000ADF802000AFB07F042F21071B0FBF1F0ED
:103FF00080B2ADF806000220ADF808000020ADF850
:104000000400ADF80A00ADF80C00ADF80E00012D6B
:1040100008D169462046FEF72DF908212046FEF713
:1040200075F91FE0022D08D169462046FEF778F9A0
:1040300008212046FEF7C6F914E0032D08D1694691
:104040002046FEF7CDF908212046FEF719FA09E0CF
:10405000042D07D169462046FEF71CFA08212046A8
:10406000FEF756FA01212046FEF7BCF80121204652
:10407000FEF7C7F80548844202D00548844203D1C0
:1040800001212046FEF7C9F800BF43E7002C01409C
:1040900000340140004C01400050014000540140F8
:1040A00090000020416851B14168491E416031B91A
:1040B000012141700178012901D181684160704777
:1040C0002DE9F04104460E461546052E01DB701F12
:1040D00086B24FF08040FEF7AFF80746B8191FFAD6
:1040E00080F8012C0FD1254805604146A007FEF756
:1040F0001CFA02214807FEF781F801220221480735
:10410000FEF7AEF838E0022C0FD11D48056041469D
:104110006007FEF70CFA04210807FEF76FF801228A
:1041200004210807FEF79CF826E0032C10D115485F
:10413000056041464FF08040FEF7FBF90821C806B4
:10414000FEF75CF801220821C806FEF789F813E0A3
:10415000042C0FD10C48056041462007FEF7EBF90F
:1041600010218806FEF74AF8012210218806FEF782
:1041700077F801E0BDE8F08100BFFBE70C0000200C
:1041800010000020140000201800002070B5044624
:104190000D46042C06DB0F4A0FA114A0FEF79CFC71
:1041A00000BFFEE704EB4400184901EB80004560C6
:1041B00004EB440001EB80008560002004EB440127
:1041C000124A02EB8101487004EB440102F821001D
:1041D00070BD0000F64400084253505C7372635C8B
:1041E0006273705F74696D65722E63004572726FE1
:1041F000723A2066696C652025732C2066756E63A3
:1042000074696F6E20257328290D0A00A80000200C
:1042100010B5FCF765FF00F0BFF803210020FFF7A1
:1042200086FAFFF7DAF910BD0EB501212120FDF75E
:10423000D3FD04208DF80B008020ADF8080002A902
:104240000A48FCF74FFD07210320FCF72BFD8020D7
:10425000009000208DF804000C208DF8050001204E
:104260008DF806006846FCF7D3FC0EBD0014014033
:1042700010B500F005F8FFF7D7FFFDF7F6FC10BD0D
:1042800010B5002003E00021084A1154401C0A2800
:10429000F9DB0A210548FBF770FF04480449086070
:1042A0000A2088800020C880088110BD48090020AD
:1042B0003C09002070B505460E462846FCF758FC20
:1042C00004460CB9002070BD31462046FEF72BFB9A
:1042D000F9E72DE9F04105460E4617462846FCF75A
:1042E00047FC04460CB9BDE8F081E06908B1E0691B
:1042F00080473A4631462046FEF7A0FB00BFF2E772
:1043000013B50446012201A92046FFF7E2FF1CBDB8
:1043100070B504460D46E1B20020FFF7F1FF2046DC
:1043200070BDFFF76FFC00BFFEE7000010B502A0F4
:10433000FEF7D2FB10BD0000B5F7D3C3D3B2BCFE6D
:10434000B6A8CAB1C6F7B3C9B9A60D0A00000000E5
:10435000F8B504460D46002000906A4629462046DE
:1043600000F00FF89DF80060611CC8B26A4629464B
:1043700000F007F8E9009DF8000088400644304648
:10438000F8BD70B504460E4615460123224629465F
:104390003C20FCF7ABFE70BD10B50421002000F0FE
:1043A000A1F810BD2DE9F74781B082466946022089
:1043B000FFF797F89DF8000018B94FF066342A4DC2
:1043C00013E09DF80000012802D1284C284D0CE094
:1043D0009DF80000022802D1244C264D05E09DF8EE
:1043E0000000032801D1244C244DBDF80800FCF73F
:1043F00068F8804622462B46FBF7E3FF0646FCF7AB
:104400006DF880B2ADF80800BDF80A00FCF759F865
:10441000064622462B46FBF7D4FF8046FCF75EF8A3
:1044200080B2ADF80A00BDF80800C1B25046FFF7EF
:104430007EF9BDF8082011120AF10102D0B2FFF78F
:1044400076F9BDF80A20D1B20AF10202D0B2FFF724
:104450006EF9BDF80A2011120AF10302D0B2FFF77B
:1044600066F9BDE8FF8700006666D63FB1BFEC9EE7
:104470003C2CB43F3C2C943F6EA301BC0512743F0E
:1044800037B50446BDF80400B0F57F7F06DDBDF802
:10449000040000F003012046FFF749F9BDF804507D
:1044A000EA1705EB9272C2F38701621CD0B2FFF7E4
:1044B0003EF9BDF80600B0F57F7F07DDBDF80620A8
:1044C00002F00301A21CD0B2FFF731F9BDF806508B
:1044D000EA1705EB9272C2F38701E21CD0B2FFF734
:1044E00026F93EBD13B504460123224601A93C200E
:1044F000FCF7D6FE1CBD6273705F53746172745416
:10450000696D6572006273705F5374617274417596
:10451000746F54696D6572006273705F53746F706D
:1045200054696D657200000000000000CD1A00089B
:10453000000100005D1B000800020000091B0008CC
:10454000000300000B1B000800040000691B0008AA
:1045500000000000E10A0008000100005D0B0008F7
:1045600000020000E50A0008000300006B0B0008D1
:1045700000040000090B0008984500080000002016
:10458000A8000000F82A000840460008A800002003
:10459000A80D0000082B000800000000000000002B
:1045A000000000000000000000000000000000000B
:1045B00000000000000000000009010100020201EB
:1045C000030302040403050504060605070706089D
:1045D00008070909080000000000000000000000B2
:1045E0000000000000000000640014000000000053
:1045F0007017000000000000AD1D0008A11D00089C
:1046000000000000000000000000000000000000AA
:1046100000A00000000000000102030401020304E6
:10462000060708090204060800A24A040000000068
:104630000000000001020304060708090000000052
:0400000508000131BD
:00000001FF
