:020000040800F2
:10000000883F002049010008291F0008F914000852
:10001000051E0008DD0F00089935000800000000EB
:10002000000000000000000000000000752700082C
:10003000CD11000800000000CD1F00086D28000849
:100040006301000863010008630100086301000800
:1000500063010008630100086301000863010008F0
:1000600063010008630100086301000863010008E0
:1000700063010008630100086301000863010008D0
:1000800063010008630100086301000863010008C0
:10009000630100086301000863010008CF11000834
:1000A00063010008630100086301000863010008A0
:1000B000FD290008630100086301000863010008CE
:1000C0006301000863010008630100086301000880
:1000D0006301000829320008630100086301000879
:1000E0006301000863010008630100086301000860
:1000F0006301000863010008630100086301000850
:10010000630100086301000863010008630100083F
:10011000630100086301000863010008630100082F
:10012000630100086301000863010008630100081F
:10013000DFF810D000F088FB00480047696700082E
:10014000AFF30080883F00200648804706480047FC
:10015000FEE7FEE7FEE7FEE7FEE7FEE7FEE7FEE777
:10016000FEE7FEE79D29000831010008D2B201E058
:1001700000F8012B491EFBD270470022F6E710B5AC
:1001800013460A4604461946FFF7F0FF204610BD05
:1001900030B505462A460B4612F8010B13F8014B01
:1001A00008B1A042F8D01CB1002802D06D1CF1E7C4
:1001B000284630BD30B480EA010202F0004530F03C
:1001C000004221F0004013D090B1C30DD40DC2F312
:1001D0001601C0F31600E41A41F4000140F40002D5
:1001E0007D34914201D3641C00E04900002C02DA06
:1001F00030BC002070474FF400000023914201D32F
:10020000891A034340084FEA4101F7D151B19142A5
:1002100002D14FF0004105E002D24FF0010101E0B0
:100220006FF0010103EBC450284430BC00F048BA21
:100230002DE9FE4F804681EA0300C00F0C46009076
:1002400021F0004123F00045B8EB0200A94105D29E
:100250004046214690461C460B46024623F000408D
:10026000104347D0270DC7F30A00C3F30A51029089
:10027000401A019040286BDAC3F3130040F4801B4E
:100280000098924620B10023D2EB030A63EB0B0BDC
:1002900001985946C0F14002504600F0E0F9064688
:1002A0000D4650465946019A00F0F8F910EB080047
:1002B0006141002487EA115284EAE7731A4340D06F
:1002C000009A62B3019A012A4FEA075215DC001B1B
:1002D00061EB02014FF0004202EA0752CDE9004211
:1002E000001C41F5801132462B4600F02FFA03B076
:1002F000BDE8F08F40462146F9E7001B61EB0201A3
:10030000001C41F5801300185B412018A2F500176E
:1003100047EB030140EAD570B6196D4111E06D0855
:100320004FEA360645EAC0754FEA0752001B61EBFB
:100330000201001C41F5801149084FEA3000001904
:10034000514132462B4603B0BDE8F04F00F0EFB903
:100350000098012240000023D0EB020263EBE0731F
:10036000009821464FEAE074B8EB000061EB04010D
:10037000E9E783F000435BE781F0004158E72DE9AE
:10038000FE4F81EA030404F0004421F00041009490
:100390004FF0000B23F0004350EA01045ED052EA14
:1003A00003045BD0C3F30A54C1F30A552C44A4F2EE
:1003B000F3340194A0FB0254C1F3130141F4801102
:1003C000C3F3130343F4801301FB024400FB034E09
:1003D000840A970A44EA815447EA8357A4FB0768D2
:1003E00002958D0A05FB07854FEA932C04FB0C54FC
:1003F0002705029D4FEA065847EA1637B5EB080570
:100400006EEB070C870E920E47EA811742EA8312C1
:10041000A7FB0201B6EB0B0164EB00042B0D43EAD2
:100420000C335E1844EB1C50DA465146E7FB0201E0
:10043000C5F313044FEA0B3343EA14534FEA043273
:10044000019C43EA0603A4F10C040294009CCDE94C
:1004500000B400F07BF903B0BDE8F08F0020014646
:10046000F9E72DE9F04D81EA030404F0004B21F097
:10047000004514464FF0000A23F0004150EA0502FF
:1004800020D054EA01021DD0C5F30A570246C5F335
:100490001303C1F31300C1F30A5640F4801543F46B
:1004A0008013A7EB0608101BD64608F2FD3873EB45
:1004B000050002D308F1010801E092185B41B8F190
:1004C000000F03DA00200146BDE8F08D00204FF454
:1004D0008011064684460EE0171B73EB050705D313
:1004E000121B63EB050306434CEA010C49084FEA73
:1004F000300092185B4150EA0107EDD152EA030047
:1005000012D082EA040083EA0501084305D0101BDB
:10051000AB4106D20122002306E000224FF0004347
:1005200002E06FF0010253101AEB06004CEB085189
:1005300010EB0A0041EB0B01BDE8F04D00F0F7B8FD
:1005400096230022114600F0C4B820F00040C10DEF
:10055000C0F3160040F400007F2901DA0020704744
:10056000962903DCC1F19601C8407047963988404E
:10057000704700F0004230F000400AD0C10D01F594
:100580006071C0F3160042EA0151C20840071143EE
:10059000704700200146704701F0004330B421F05D
:1005A000004150EA010206D00A0DA2F56072C1F3C3
:1005B0001301002A02DC30BC00207047440F44EADB
:1005C000C104C100E01830BC00EBC25000F078B8A4
:1005D00030B50B46014600202022012409E021FA13
:1005E00002F59D4205D303FA02F5491B04FA02F510
:1005F0002844151EA2F10102F1DC30BD2DE9F05FA7
:100600000546002092469B46884606468146402481
:100610001BE0284641464746224600F02FF8534645
:100620005A46C01A914110D311461846224600F08E
:1006300016F82D1A67EB01084F46224601200021CB
:1006400000F00DF817EB00094E41201EA4F1010443
:10065000DFDC484631462A464346BDE8F09F202A63
:1006600004DB203A00FA02F1002070479140C2F109
:10067000200320FA03F3194390407047202A04DB3B
:10068000203A21FA02F00021704721FA02F3D0400B
:10069000C2F120029140084319467047202A06DB28
:1006A000CB17203A41FA02F043EAE07306E041FA40
:1006B00002F3D040C2F1200291400843194670472E
:1006C0000029A8BF7047401C490008BF20F0010066
:1006D000704710B4B0FA80FC00FA0CF050EA010444
:1006E00004BF10BC704749B1CCF1200421FA04F4D6
:1006F00011FA0CF118BF012121430843A3EB0C01AF
:10070000CB1D4FEA00614FEA102042BF002010BC11
:10071000704700EBC35010440029A4BF10BC7047C1
:10072000401C490008BF20F0010010BC704710B504
:10073000141E73F1000408DA401C41F10001921804
:100740005B411A4301D120F0010010BD2DE9F04DAD
:1007500092469B4611B1B1FA81F202E0B0FA80F202
:1007600020329046FFF77BFF04460F4640EA0A001E
:1007700041EA0B0153465A46084313D0114653EA47
:10078000010019D0C8F140025046FFF777FF054637
:100790000E46504659464246FFF761FF084305D0D2
:1007A000012004E020463946BDE8F08D00200543D5
:1007B00046EAE0762C4337430A986305E40AA0EB47
:1007C00008000022FD0A44EA47540A3002D50020FE
:1007D0000146E9E7010510196941DDE908450019FD
:1007E0006941BDE8F04DA2E7C1F30A52C1F313011C
:1007F00040F2FF3341F480119A4202DA00200146B0
:10080000704740F233439A42A2F2334202DC524232
:10081000FFF734BFFFF723BF30B5041E71F10004AA
:1008200004DB4FF00044404264EB0101141E73F1FD
:10083000000405DB1C464FF00043524263EB040307
:10084000994208BF904230BD064C074D06E0E06873
:1008500040F0010394E8070098471034AC42F6D307
:10086000FFF76AFCA4450308C445030870B58C185B
:1008700010F8015B15F0070301D110F8013B2A11B4
:1008800006D110F8012B03E010F8016B01F8016BA1
:100890005B1EF9D12B0705D40023521E0DD401F89D
:1008A000013BFAE710F8013BCB1A921C03E013F866
:1008B000015B01F8015B521EF9D5A142D8D300209B
:1008C00070BD00002DE9F04F87B04FF0000A002402
:1008D00031E01B4A32F81410E0B200F0A0F9E0B2A7
:1008E00000F0C9F8052825D1E0B2052202A900F0E0
:1008F0004BF801281ED1052102A801F0D3F9824648
:10090000E0B200F0D3F881465046FFF719FE4FF0F1
:100910008B410190FFF74EFC8346FFF72AFE074606
:100920004FF06632074BFFF72AFD0546FFF734FE0E
:10093000C9F80000641C062CCBDB07B0BDE8F08FC3
:10094000481A002066660A4021B1826842F001021E
:10095000826003E0826822F001028260704721B168
:10096000826842F48072826003E0826822F48072BE
:1009700082607047014600208A6802F004020AB1D2
:10098000012000E0002070472DE9F04707460D46A2
:1009900014464FF00008C1460026B24600233846F0
:1009A00000F084F8024612B90020BDE8F0875089B3
:1009B0009189884207DB50899189401A1FFA80F992
:1009C0004FF0000808E050899189401A11890844C5
:1009D0001FFA80F94FF00108A14501DA0020E4E791
:1009E000B8F1000F30D010899189401A86B2A64222
:1009F0000DDB002308E091891944506830F811009C
:100A000025F81300581C83B2A342F4DB29E000232D
:100A100008E091891944506830F8110025F8130056
:100A2000581C83B2B342F4DBA01B1FFA80FA0023E8
:100A300007E0506830F81300F11825F81100581C31
:100A400083B25345F5DB0CE0002308E0918919449B
:100A5000506830F8110025F81300581C83B2A342E7
:100A6000F4DB90892044118990FBF1FC01FB1C0010
:100A70009081012099E710B503460024184600F044
:100A800015F802460AB9002010BD508991898842A4
:100A900004DB50899189401A84B205E0508991891C
:100AA000401A1189084484B22046EDE7014609B98D
:100AB0000B487047012901D10A48FAE7022901D100
:100AC0000948F6E7032901D10848F2E7042901D1D2
:100AD0000748EEE7052901D10648EAE700BFE8E745
:100AE0006C1A0020941A0020BC1A0020E41A00207E
:100AF0000C1B0020341B0020014600208A6802F0F5
:100B000008020AB1012000E00020704730B502461B
:100B10000020002350680F4C20400D790C6844EAF7
:100B200005242043506090680B4C2040D1E90254CA
:100B30002C434D7944EA450420439060D06A20F468
:100B400070000C7C641EE4B2234340EA0350D06280
:100B500030BD0000FFFEF0FFFDF7F1FFF0B50446E9
:100B60000D4600200021092D11DDE068A5F10A06DF
:100B700006EB4607072606FA07F18843A5F10A06A1
:100B800006EB460603FA06F10843E0600CE0206934
:100B900005EB4507072606FA07F1884305EB4506EE
:100BA00003FA06F108432061072A0FDA606B561E2C
:100BB00006EB86071F2606FA07F18843561E06EB4A
:100BC000860605FA06F10843606322E00D2A0FDA73
:100BD000206BD61F06EB86071F2606FA07F188430F
:100BE000D61F06EB860605FA06F10843206310E0DF
:100BF000E06AA2F10D0606EB86071F2606FA07F14A
:100C00008843A2F10D0606EB860605FA06F10843B5
:100C1000E062F0BD816841F008018160704730B545
:100C200004460B4600252046FFF740FF02466AB106
:100C30005189506820F811305089401C80B2508191
:100C40001189884201DB002050810125284630BDF2
:100C500021B1826842F4A002826003E0826822F43B
:100C6000A00282607047816841F004018160704792
:100C700008B50121102001F0D7FA3F20ADF800009F
:100C800000208DF803006946014800F02FFB08BDE5
:100C90000010014010B5FFF7EBFF00F001F810BDA8
:100CA00000B591B00121084601F09EFA01214802E9
:100CB00001F0BAFA444800F0C5F9444806904448A7
:100CC0000790002008900620099000200A908020BC
:100CD0000B9040000C9080000D9020200E900002A0
:100CE0000F900020109006A9374800F051FA01211A
:100CF000354800F09BF90020019001208DF8080094
:100D00008DF809004FF46020039000200490062025
:100D10008DF8140001A92D484C38FFF7F7FE4FF469
:100D2000404001F055FA052301220A2127484C389A
:100D3000FFF714FF052302220B2124484C38FFF74C
:100D40000DFF052303220C2120484C38FFF706FF36
:100D5000052304220D211D484C38FFF7FFFE052313
:100D60001A460E2119484C38FFF7F8FE05230622D3
:100D70000F2116484C38FFF7F1FE012113484C387B
:100D8000FFF7EDFD012111484C38FFF7DDFD0F485D
:100D90004C38FFF73FFF00BF0C484C38FFF7ACFE64
:100DA0000028F9D109484C38FFF75DFF00BF07481C
:100DB0004C38FFF7DFFD0028F9D1012103484C38FA
:100DC000FFF746FF11B000BD080002404C2401406F
:100DD000481A002010B503480068FFF7B6FB80B240
:100DE00010BD0000D800002000B5012211460520EA
:100DF00000F002F800BD000010B518B1094B1B7BD4
:100E0000012B00D110BD074B58809980DA80002358
:100E1000044C23816381637001232370024C23619E
:100E200000BFEFE7201A00200010014070B5002439
:100E300013E00C4810F8345000EBC40046780A4820
:100E4000405D304100F0010028B1064901EBC401CA
:100E50004868804703E0601CC4B2052CE9DB00BF92
:100E600070BD0000386D0008980000207047000039
:100E700010B500240121064800F017FB2146641C30
:100E8000C82904DD00240121014800F00CFB10BD3D
:100E9000001001407047000070B503460C4600206A
:100EA0001BE0834217D10E4D15F8301005EBC0053D
:100EB0006A78012C08D10B4D6D5C01269640F6B284
:100EC0003543084E755406E0064D6D5C012696408C
:100ED000B543044E7554451CE8B20528E1DB70BDEE
:100EE000386D00089800002010B50121014800F07D
:100EF000DCFA10BD0010014010B50121014800F0DE
:100F0000D4FA10BD0010014000200F49088048802D
:100F100088804FF47A60C8800C48886000200C49B3
:100F20000880488088804FF47A60C88009488860CB
:100F3000002009490880488088804FF47A60C88082
:100F40000648886070470000FC1900204D500008DA
:100F5000081A00209D4F0008141A0020794F00083D
:100F600070B504460025608850B9E0880A2190FBDE
:100F7000F1F042F2107191FBF0F0218808442080DA
:100F8000208842F21071884201DB01206080608875
:100F900001280AD1E0880A2190FBF1F042F2107199
:100FA00091FBF0F02188081A2080208810B90020D9
:100FB000608001252088A1688847284670BD70B5EB
:100FC00004460D4616466560268171002846FFF7E7
:100FD000D4F800206081A081206070BD00BFFEE7D2
:100FE000014609B909487047012901D10020FAE7F3
:100FF000022901D10020F6E7032901D10020F2E700
:10100000042901D10020EEE70020ECE7A411002024
:1010100008B525208DF8000000208DF80200012081
:101020008DF80300684600F08FFF08BD21B102680B
:1010300042F00102026004E002684FF6FE731A40BB
:101040000260704701684FF6FE7211400160002196
:10105000016041608160C1604B49884208D14A49C2
:101060000839496841F00F01474A083A51608AE05F
:1010700045491431884208D143490839496841F04B
:10108000F001414A083A51607DE03F4928318842E9
:1010900008D13D490839496841F470613A4A083A33
:1010A000516070E038493C31884208D136490839EE
:1010B000496841F47041344A083A516063E032496A
:1010C0005031884208D130490839496841F47021CB
:1010D0002D4A083A516056E02B496431884208D1C4
:1010E00029490839496841F47001274A083A516092
:1010F00049E025497831884208D1234908394968AF
:1011000041F07061204A083A51603CE01F49884232
:1011100006D1011F096841F00F01021F116032E082
:101120001A491431884208D11849091F096841F049
:10113000F001164A121F116025E014492831884237
:1011400008D11249091F096841F470610F4A121F42
:10115000116018E00D493C31884208D10B49091F44
:10116000096841F47041094A121F11600BE00749F8
:101170005031884207D10549091F096841F470219F
:10118000024A121F11607047080002400804024022
:1011900010B50022026847F6F0739A430C6A8B6818
:1011A00023430C6923434C6923438C692343CC6953
:1011B00023434C6A23438C6A23431A430260CB685F
:1011C00043600B6883604B68C36010BD704710B507
:1011D000802000F00DF808B100F0AEFB802000F098
:1011E00001F810BD01490860704700001404014077
:1011F000014600200022074B1B6803EA0102054B51
:1012000014331B680B4013B10AB1012000E0002029
:101210007047000000040140002123498279002A20
:101220003AD00A46126803689A430B461A600A1DB0
:10123000126803689A430B1D1A60027911440A6808
:1012400003681A430A60184A0832126803689A430E
:10125000154B08331A601A1D126803689A43124B23
:101260000C331A604279102A0ED11A1F12680368D3
:101270001A430D4B08331A601A1D126803681A438B
:10128000094B0C331A600DE00749427911440A6892
:1012900003681A430A6005E0027911440A6803688A
:1012A0009A430A60704700000004014030B50022F4
:1012B0008B071C0F0F2303FA04F20B4B8C1053F80F
:1012C00024309343084C8D1044F8253023468C106D
:1012D00053F824308C07240F00FA04F42343024C03
:1012E0008D1044F8253030BD080001402DE9F04153
:1012F000024600250026002000230024002791F844
:1013000003C00CF00F0591F803C00CF0100CBCF1F9
:10131000000F03D091F802C04CEA050591F800C017
:10132000BCF1000F31D0146800202BE04FF0010C0D
:101330000CFA00F3B1F800C00CEA03069E4220D17B
:1013400083004FF00F0C0CFA03F7BC4305FA03FCC3
:101350004CEA040491F803C0BCF1280F06D14FF009
:10136000010C0CFA00FCC2F814C00AE091F803C0AA
:10137000BCF1480F05D14FF0010C0CFA00FCC2F88B
:1013800010C0401C0828D1D31460B1F800C0BCF1D3
:10139000FF0F34DD546800202EE000F1080C4FF000
:1013A000010808FA0CF3B1F800C00CEA03069E42EB
:1013B00021D183004FF00F0C0CFA03F7BC4305FA60
:1013C00003FC4CEA040491F803C0BCF1280F05D1DA
:1013D00000F1080C08FA0CF8C2F8148091F803C068
:1013E000BCF1480F07D100F1080C4FF0010808FAD2
:1013F0000CF8C2F81080401C0828CED35460BDE819
:10140000F0810000F0B50A460023002400210025E9
:1014100000F00046B6F1004F02D11D4EF16901E027
:101420001B4E7168C0F3034583B200F44016B6F555
:10143000401F08D121F07061154E766826F0706665
:10144000134F7E6012E000F48016B6F5801F06D1BF
:10145000032606FA05F4A14341F0706106E0460D4B
:10146000360103FA06F6B14341F0706122B1460D30
:10147000360103FA06F6314300F00046B6F1004F9C
:1014800002D1034EF16101E0014E7160F0BD000038
:10149000000001400246002093680B400BB1012080
:1014A00000E00020704741617047016170470AB158
:1014B000016100E04161704710B50246002310460B
:1014C000FFF7F4FA04462368184610BD10B500244F
:1014D00008E0601CC4B2142003F09EF8FA2C01D17D
:1014E000204610BD80210348FFF7D4FF0028F0D12B
:1014F0002046F6E70014014000BFFEE700B585B0C6
:101500000121042000F090FE0121880300F08CFEF0
:1015100018208DF813004FF40070ADF81000032070
:101520008DF8120004A91848FFF7E0FE04208DF89A
:1015300013000002ADF8100004A91348FFF7D6FE0F
:101540004FF4E13000900020ADF80400ADF8060043
:10155000ADF80800ADF80C000C20ADF80A006946A3
:101560000A4801F0CDFE012240F22551074801F062
:10157000A2FE0121054801F068FE4021034801F068
:101580005BFE05B000BD00000008014000380140CE
:101590002DE9F0410024002500F076F90446682C7E
:1015A00070D018DC382C6ED00CDC182C6CD004DC1D
:1015B000022C51D0102C68D1BEE0222C38D0302C17
:1015C000F9D19AE0422C71D04A2C70D0522C6FD0B5
:1015D0005A2CF0D1C0E0A82C60D008DC7A2C68D05E
:1015E000902C68D0982C78D0A22CE4D108E0B02CB4
:1015F0007BD0C22C3ED0E02C48D0E22CDBD10BE0DB
:1016000001210846FFF748FC214665A002F006FBD1
:1016100068A002F003FBC0E000210120FFF73CFCC2
:1016200021465FA002F0FAFA65A002F0F7FAB4E0F2
:101630000120FFF741FF8046FEF79BFF064632463A
:101640000B4662A002F0EAFA214655A002F0E6FA43
:1016500060A002F0E3FAA0E0614A42F210710120BA
:1016600003F0E2FB21464EA002F0D8FA5DA002F0A2
:10167000D5FA92E021464AA002F0D0FA5BA002F02F
:10168000CDFA8AE021E05FE046E085E0214644A013
:1016900002F0C4FA59A002F0C1FA7EE0214640A04F
:1016A00002F0BCFA58A002F0B9FA76E05CE063E020
:1016B0006AE039E0FFE7214639A002F0AFFA54A012
:1016C00002F0ACFA69E008E00FE0214634A002F035
:1016D000A5FA52A002F0A2FA5FE0214630A002F083
:1016E0009DFA50A002F09AFA57E021462CA002F091
:1016F00095FA4EA002F092FA4FE0FFF76BFB054619
:1017000029464CA002F08AFA214625A002F086FA6A
:101710004BA002F083FA40E0214621A002F07EFABD
:1017200049A002F07BFA38E021461DA002F076FACB
:1017300047A002F073FA30E0214619A002F06EFAD9
:1017400045A002F06BFA28E0214615A002F066FAE7
:1017500043A002F063FA20E0214611A002F05EFAF5
:1017600041A002F05BFA18E021460DA002F056FA03
:101770003FA002F053FA10E0214609A002F04EFA11
:101780003DA002F04BFA08E0214605A002F046FA1F
:101790003BA002F043FA00E000BF00BFBDE8F081CB
:1017A0000D0A206B65795F76616C3D2564200D0A1A
:1017B000000000000D0A20504F574552200D0A002E
:1017C0000D0A204D454E55200D0A0000252E32668B
:1017D0000D0A00000D0A2054455354200D0A000044
:1017E000453000080D0A202B200D0A000D0A20525A
:1017F000455455524E200D0A000000000D0A207C71
:101800003C3C200D0A0000000D0A203E200D0A007D
:101810000D0A203E3E7C200D0A0000000D0A2030FB
:10182000200D0A000D0A202D200D0A000D0A20436C
:10183000200D0A00414C533D25640D0A00000000B4
:101840000D0A2031200D0A000D0A2032200D0A0059
:101850000D0A2033200D0A000D0A2034200D0A0045
:101860000D0A2035200D0A000D0A2036200D0A0031
:101870000D0A2037200D0A000D0A2038200D0A001D
:101880000D0A2039200D0A0010B5002400F024F8BC
:1018900008B9002010BD0B4800680A49C988445C9B
:1018A0000848C088401C80B20649C88089888842A0
:1018B00006DB214604A002F0B1F900200149C880EE
:1018C0002046E7E7301A0020497264615F64617462
:1018D000613D25640D0A000000200B4909890A4A70
:1018E000D288914206DB08490989074AD288891AB9
:1018F00088B208E004498988034A12891144024ADF
:10190000D288891A88B27047301A002070B5024612
:10191000130EC2F30745C2F30724D6B2E843C0B2A0
:10192000984207D133B9F043C0B2A04200D10C7045
:10193000012070BD0020FCE7F8B50024002500263A
:101940000020009055E080212B48FFF7A3FD0128DF
:101950004FD1FFF7BBFD0446FA2C00DB4AE0C82C50
:1019600003DBFA2C01DA012532E00A2C03DB322CEE
:1019700001DA00262CE0322C03DB642C01DA01268C
:1019800026E0642C24DBC82C22DC01201B490870D3
:101990001B480078401C1A4908701A480078401CFF
:1019A000184908701648017817A002F037F9154851
:1019B00001781CA002F032F9694621480068FFF75F
:1019C000A5FF012803D19DF8000000F03BF811E0CD
:1019D000012D0ED11A4800684000194908600846D8
:1019E000006830440860002005490870012005495E
:1019F0000870A8E700BFF8BD00140140D100002026
:101A0000D0000020D20000200D0A20B0B4BCFCB4ED
:101A1000CECAFD6672616D655F636E743D2564209C
:101A20000D0A00000D0A20D6D0B6CFB4CECAFD698B
:101A300073725F636E743D2564200D0A0000000020
:101A4000D400002010B504460A48006809490989F5
:101A5000445408480089401C80B20649088189889E
:101A6000884206DB214604A002F0D8F80020014994
:101A7000088110BD301A00204972646144617461AC
:101A80003D25640D0A0000000448006800F00100D4
:101A900008B1012070470020FCE700000808014061
:101AA00010B54FF400510448FFF7F4FC012800D1B1
:101AB00010BD0020FCE70000001001407CB50024B0
:101AC00003F094F802F066FE0446012C2CD10121AB
:101AD000084600F0FBF9FFF787F9334800680A3041
:101AE0003149086008460068FF2801DD00200860D1
:101AF0002D48006842F210714843FA2190FBF1F53D
:101B000043F698200323294A0121CDE900052848FE
:101B100003F09CF82748008800EB40002649084461
:101B20004078244908802FE0042C2DD10121022087
:101B300000F0CCF901210220FFF7AEF91A48006845
:101B40000A381949086008460068002801DAFF20B1
:101B500008601548006842F210714843FA2190FB72
:101B6000F1F543F698200323104A0121CDE9000541
:101B70000F4803F06BF80F48008800EB40000E4957
:101B8000084480780B4908800A4800880B49098876
:101B9000884208D00748008808490880054801881D
:101BA00007A002F03BF87CBD740000200004004058
:101BB000000C01406E00002050000020700000204A
:101BC000675F7573437572496E6465783D25640D72
:101BD0000A0000000C48006880F020000A490860F4
:101BE0000A4801880088401C084A1080642909DDE1
:101BF00000201146088020200349091D08600120AB
:101C0000091D0860704700000C0C01407E00002098
:101C100010B50248FFF7A4F910BD0000141A002007
:101C20000348006880F00200014908607047000026
:101C30000C0C014070B503460C4600201BE08342AB
:101C400017D10E4D15F8301005EBC0056A78012C40
:101C500008D10B4D6D5C01269640F6B23543084E17
:101C6000755406E0064D6D5C01269640B543044E62
:101C70007554451CE8B20528E1DB70BD106D000805
:101C80007800002010B50248FFF76AF910BD000087
:101C9000081A002010B50248FFF762F910BD0000D5
:101CA000FC1900202DE9F04302460C4600250027D0
:101CB000A846AC4600260023002102B114B900203A
:101CC000BDE8F0831588178800211DE032F81190D7
:101CD00032F8110078B10DB932F8115032F8110014
:101CE000A84201DA32F8115032F81100B84206DD8C
:101CF00032F8117003E00CF101001FFA80FC32F899
:101D000011000344481C81B2A142DFDBA4EB0C00AC
:101D100086B2022E07DD5B1BDB1BB01EB3FBF0F0AF
:101D20001FFA80F80FE0022E02D1C3F34F080AE039
:101D30000020061E02D10120061E02D04FF000082E
:101D400001E04FF000084046BAE7000070B50024FB
:101D500013E0104810F8345000EBC40046780E48E9
:101D6000405D304100F0010028B10A4901EBC40197
:101D70004868804703E0601CC4B2052CE9DB00BF63
:101D8000052C06D1202005490860012008600220AA
:101D9000086070BD106D000878000020100C014034
:101DA00008B50121082000F03FFA10208DF803004B
:101DB00003208DF802002020ADF800006946094894
:101DC000FFF794FA0120ADF8000069460548FFF7D7
:101DD0008DFA0220ADF8000069460248FFF786FA46
:101DE00008BD0000000C014010B502A000F0C3FCCB
:101DF00010BD0000313ABBA8D0C4BAFBB5FB2E6DB4
:101E00007033000000BFFEE770B5002420E01248E8
:101E100000EBC4004578104800EBC40086780F48FA
:101E2000007F38B90D481830005D012802D100202C
:101E30000A4908740A48405D304100F0010028B1A9
:101E4000084951F8240004F0A5FE03E0601CC4B268
:101E5000042CDCDB00BF70BD30980008683B00201C
:101E6000140100201C01002010B502A000F083FC2A
:101E700010BD0000313A5465737446696C652E6D6F
:101E80007033000010B502A000F075FC10BD00001A
:101E9000313ABBD8D0C4D7AAD2E25F313832343518
:101EA000362E6D703300000010B502A000F063FC08
:101EB00010BD0000313ACFEBC4E3B5C4D2B95F32F4
:101EC00030333232322E6D703300000070B503466D
:101ED0000C4600201FE083421BD1104D05EBC005CE
:101EE00069780E4D05EBC005AA78012C0AD10126B0
:101EF0000B4D2E540B4D6D5C9640F6B23543094E9A
:101F0000755406E0074D6D5C01269640B543054EBD
:101F10007554451CE8B20428DDDB70BD309800081C
:101F2000803B002014010020704708B517208DF871
:101F3000000002208DF8010001208DF803006846A2
:101F400000F002F808BD000070B5002100230F2248
:101F5000C47804B3154C246804F4E064C4F5E06468
:101F6000210AC1F10403CA40447804FA03F18478D9
:101F70001440214309010E4C0678A155047804F061
:101F80001F050124AC4005786D11AD0005F1E02579
:101F9000C5F8004109E0047804F01F050124AC40B5
:101FA000044D0678761145F8264070BD0CED00E032
:101FB00000E400E080E100E002490143024A1160D0
:101FC000704700000000FA050CED00E070470000CB
:101FD00010B519A001F022FE24A126A001F01EFEDA
:101FE00029480368001F0268001F016827A001F04C
:101FF00015FE4FF000612AA001F010FE22481038B3
:1020000001682DA001F00AFE082130A001F006FEB3
:10201000344800683449B0FBF1F4214633A001F0A4
:10202000FDFD4FF0005135A001F0F8FD4FF4803177
:1020300038A001F0F3FD10BD2A2A2A2A2A2A2A2ACA
:102040002A2A2A2A2A2A2A2A2A2A2A2A2A2A2A2AF0
:102050002A2A2A2A2A2A2A2A2A2A2A2A2A2A2A2AE0
:102060002A2A2A2A2A2A0D0A0000000056332E3571
:102070002E300000B9CCBCFEBFE2B0E6B1BEBAC59E
:10208000A3BA25730D0A0000F0F7FF1FD0BEC6AC3F
:102090004944A3BA2530782530782530780D0A00D8
:1020A000C4DAB2BF464C415348C6F0CABCB5D8D614
:1020B000B7A3BA25780D0A00C4DAB2BF464C415323
:1020C00048B4F3D0A1A3BA25780D0A00C4DAB2BF90
:1020D000464C415348D2B3B4F3D0A1A3BA25780DEE
:1020E0000A000000F400002040420F00D6F7C6B5F9
:1020F000A3BA25644D485A0D0A000000C4DAB2BFE5
:102100005352414DC6F0CABCB5D8D6B7A3BA25784C
:102110000D0A0000C4DAB2BF5352414DB4F3D0A14E
:10212000A3BA25780D0A000010B5002400BF3DE0D9
:1021300004EB44001F4901EBC000C18804EB4400DC
:102140001C4A02EBC000C088401C04EB4402194B3F
:1021500003EBC202D08004EB44001A4602EBC0003D
:102160008088814206DB04EB440102EBC10148692F
:10217000804706E004EB44010E4A02EBC101086906
:10218000804704EB44000B4901EBC000C08804EB1E
:102190004401084A02EBC1014988884205DB00205E
:1021A00004EB440102EBC101C880641C012CBFDBBD
:1021B00010BD000080000020202001490860704709
:1021C000100C01402020014908607047140C0140A8
:1021D00001460020034A506820F440400843506004
:1021E000704700000010024029B1064A52690243BC
:1021F000044B5A6104E0034A52698243014B5A611D
:10220000704700000010024029B1064AD26902431B
:10221000044BDA6104E0034AD2698243014BDA617C
:10222000704700000010024029B1064A926902433B
:10223000044B9A6104E0034A92698243014B9A611C
:10224000704700000010024030B500210022002439
:1022500000232D4D6D6805F00C0121B1042905D036
:10226000082923D105E0294D056022E0274D0560AE
:102270001FE0254D6D6805F47012234D6D6805F45F
:102280008034022505EB92421CB9214D554305606F
:102290000BE01D4D6D6805F400351DB11C4D554317
:1022A000056002E0194D5543056002E0174D0560D9
:1022B00000BF00BF144D6D6805F0F0010909154D10
:1022C0006B5C0568DD4045600F4D6D6805F4E061AD
:1022D000090A104D6B5C4568DD4085600A4D6D68EC
:1022E00005F46051C90A0B4D6B5C4568DD40C56063
:1022F000054D6D6805F44041890B074D6B5CC56861
:10230000B5FBF3F5056130BD0010024000127A0004
:1023100000093D00E0000020F000002070470000B0
:1023200010B5044600BF02210A4800F0C9F9002890
:10233000F9D02146074800F0CFF900BF0121054838
:1023400000F0BEF90028F9D0024800F0C2F9C0B28E
:1023500010BD00000038004021B1028842F0400268
:10236000028004E002884FF6BF731A400280704773
:1023700070B505460C46164610211048FFF793F835
:10238000032000F029F9C4F3074000F025F9C4F355
:10239000072000F021F9E0B200F01EF904E0FF2070
:1023A00000F01AF928706D1C301EA6F10106F6D156
:1023B00010210248FFF779F870BD000000080140C5
:1023C0002DE9F05F07460E4614464FF00008C1465F
:1023D000C2460025AB4606F0FF0ACAF10000C5B2AE
:1023E0002046E11704EB1161C1F30728E11704EB64
:1023F00011610912A4EB012101F0FF09BAF1000FEC
:1024000020D1B8F1000F05D122463146384600F000
:1024100069F864E009E04FF480723146384600F014
:1024200061F806F5807607F58077B8F10000A8F12D
:10243000010101F0FF08EED14A463146384600F06E
:1024400051F84CE0B8F1000F18D1A94510DDA9EB07
:10245000050000F0FF0B2A463146384600F042F8EE
:102460002E442F445A463146384600F03BF836E0B9
:1024700022463146384600F035F830E0601B84B221
:102480002046E11704EB1161C1F30728E11704EBC3
:1024900011610912A4EB012101F0FF092A4631461E
:1024A000384600F01FF82E442F4409E04FF48072A4
:1024B0003146384600F016F806F5807607F5807745
:1024C000B8F10000A8F1010101F0FF08EED1B9F167
:1024D000000F04D04A463146384600F003F8BDE804
:1024E000F09F000070B505460C46164600F0D8F87F
:1024F00010211348FEF7D7FF022000F06DF8C4F357
:10250000074000F069F8C4F3072000F065F8E0B276
:1025100000F062F8B6F5807F01DD4FF4807603E0CD
:10252000287800F059F86D1C301EA6F101018EB21A
:10253000F6D110210248FEF7B8FF00F087F870BD11
:10254000000801402DE9F041002400250026002765
:1025500010210F48FEF7A7FF9F2000F03DF8FF2055
:1025600000F03AF80546FF2000F036F80646FF2056
:1025700000F032F8074610210548FEF796FF2804C0
:1025800040EA062040EA07042046BDE8F08100004A
:102590000008014010B5044600F082F800F056F83B
:1025A00010210C48FEF77FFF202000F015F8C4F33F
:1025B000074000F011F8C4F3072000F00DF8E0B276
:1025C00000F00AF810210348FEF76FFF00F03EF814
:1025D00010BD00000008014010B504464FF48050C3
:1025E0001849086009E017490868411E154A11603A
:1025F00018B900F0A5F8C0B210BD0221124800F0D1
:102600005FF80028EFD021460F4800F065F84FF43E
:1026100080500C49086009E00A490868411E094ACF
:10262000116018B900F08CF8C0B2E5E70121064846
:1026300000F046F80028EFD0034800F04AF8C0B296
:10264000DAE700002C0100200030014010B5002422
:1026500010211148FEF727FF0520FFF7BDFF4FF4BB
:1026600080500E49086000BFFF20FFF7B5FF044609
:102670000A490868411E094A116010B900F060F863
:1026800010BD04F001000028EED110210248FEF731
:102690000CFF00BFF4E70000000801402C010020FF
:1026A00010B510210548FEF7FEFE0620FFF794FF47
:1026B00010210248FEF7F9FE10BD0000000801409D
:1026C0000246002013890B400BB1012000E00020DE
:1026D00070470146888970478181704710B5002294
:1026E000028802F441520B884C8823438C88234390
:1026F000CC8823430C8923434C8923438C8923436F
:10270000CC8923431A430280838B4FF2FF7423400A
:1027100083830B8A038210BD10B5044607480088E6
:102720004FF6C771084005490880084600882043D5
:10273000088001210148FFF70FFE10BD003800405E
:1027400010B502A001F06AFA002010BD3C3C2D46F5
:102750004C4153482D4552524F522D3E3E2053502E
:10276000492054696D656F7574206572726F7221AE
:102770000A000000704710B50446204604F00AFA2B
:1027800010BD10B500F002F810BD00000CB500201F
:10279000019000903348006840F48030314908606F
:1027A00000BF3048006800F4003000900198401CE1
:1027B0000190009818B90198B0F5A06FF1D129489F
:1027C000006800F4003010B10120009001E000200A
:1027D00000900098012843D12348006840F0100081
:1027E000214908600846006820F003000860084698
:1027F000006840F0020008601A48406819494860C3
:102800000846406848600846406840F48060486078
:102810000846406820F47C1048600846406840F450
:10282000E81048600846006840F08070086000BF0B
:102830000C48006800F000700028F9D00948406892
:1028400020F00300074948600846406840F0020055
:10285000486000BF0348406800F00C000828F9D128
:102860000CBD0000001002400020024010B500F036
:1028700001F810BD10B51B48006840B11948006848
:10288000401E1849086010B901201749087000243B
:1028900008E004EB4401154A02EB810002F0B6FAAD
:1028A000601CC4B2042CF4DB11480068401C1049C1
:1028B0000860084600686FF00041884202D100209D
:1028C0000B49086002F0BAF90A480078401CC0B20F
:1028D000084908700A2803DB0020087002F0A2F9FA
:1028E00010BD00000400002008000020741100202A
:1028F0000C0000202000002010B500210020002244
:10290000214B5B6803F00C0121B1042906D0082992
:1029100028D107E01D4B1E4C236027E01B4B1C4CAD
:10292000236023E0184B5B6803F47010164B5B6860
:1029300003F48032022303EB904022B9154B43434A
:10294000134C23600DE0104B5B6803F4003323B19C
:10295000104B43430E4C236003E00C4B43430C4CA1
:10296000236003E0094B0A4C236000BF00BF064B05
:102970005B68C3F30313084CE15C054B1B68CB4059
:10298000034C236010BD00000010024000127A00CA
:10299000F400002000093D00F800002010B51348A5
:1029A000006840F00100114908600846406810497D
:1029B00008400E494860084600680E4908400B4927
:1029C00008600846006820F48020086008464068D7
:1029D00020F4FE0048604FF41F008860FFF7D1FE2E
:1029E0004FF000600449086010BD00000010024074
:1029F0000000FFF8FFFFF6FE08ED00E010B5022131
:102A0000480700F076F858B10221480700F050F866
:102A100000220221480700F07DF81B48006880472B
:102A20000421080700F065F858B10421080700F0F8
:102A30003FF800220421080700F06CF813480068F2
:102A400080470821C80600F054F858B10821C8068C
:102A500000F02EF800220821C80600F05BF80C48B0
:102A6000006880471021880600F043F858B1102113
:102A7000880600F01DF800221021880600F04AF8B0
:102A800004480068804710BD10000020140000209A
:102A9000180000201C00002021B1028842F08002B2
:102AA000028004E002884FF67F731A40028070476C
:102AB000CA430282704721B1028842F001020280BB
:102AC00004E002884FF6FE731A400280704731B16D
:102AD000B0F8442042F40042A0F8442005E0B0F8E9
:102AE0004420C2F30E02A0F8442070470146888CAF
:102AF000704730B50246002000230024158A05EAFD
:102B00000103958905EA010413B10CB1012000E02D
:102B1000002030BD1AB183890B43838102E0838991
:102B20008B4383817047000070B50024002200238E
:102B3000058C4FF6FE7635400584028C8388048B25
:102B40004FF68F752C40B51E2C400D882C43751EFA
:102B50002A400D892A434D882A43144DA8420BD0A0
:102B6000134DA84208D0134DA84205D0124DA842DB
:102B700002D0124DA84213D14FF6F7752A404D8965
:102B80002A434FF6FB752A408D882A434FF6FF658E
:102B90002B404FF6FF552B408D892B43CD892B437E
:102BA00083800483CD888586028470BD002C01401B
:102BB0000034014000400140004401400048014011
:102BC0000A460021018B4FF6F77319401143018328
:102BD0007047000070B5002400220023058C4FF6DA
:102BE000EF7635400584028C8388048B48F6FF75A8
:102BF0002C404FF6FF452C400D884FF6FF7606EA35
:102C000005252C434FF6DF752A400D8906EA051588
:102C10002A434D8806EA05152A43154DA84202D0DD
:102C2000144DA8421DD14FF67F752A404D894FF6AD
:102C3000FF7606EA05152A434FF6BF752A408D88B0
:102C400006EA05152A434FF6FF352B404FF2FF7574
:102C50002B408D8906EA85052B43CD8906EA85053B
:102C60002B4383800483CD880587028470BD0000D8
:102C7000002C0140003401400A460021018B4FF234
:102C8000FF7319404FF6FF7303EA022319430183D0
:102C90007047000070B5002400220023058C4FF619
:102CA000FF6635400584028C8388848B4FF68F75D0
:102CB0002C404FF6FC752C400D882C434FF6FF55E9
:102CC0002A400D894FF6FF7606EA05252A434D88EE
:102CD00006EA05252A43154DA84202D0144DA84204
:102CE0001DD14FF2FF752A404D894FF6FF7606EA57
:102CF00005252A434FF6FF352A408D8806EA05252B
:102D00002A434EF6FF752B404DF6FF752B408D89FB
:102D100006EA05152B43CD8906EA05152B4383806A
:102D20008483CD888587028470BD0000002C01401B
:102D3000003401400A460021818B4FF6F773194099
:102D4000114381837047000070B5002200230024E6
:102D5000058C4EF6FF7635400584038C8488828B83
:102D600048F6FF752A404FF6FF452A400D884FF67A
:102D7000FF7606EA05252A434DF6FF752B400D899F
:102D800006EA05352B434D8806EA05352B430B4DE6
:102D9000A84202D00A4DA84208D14BF6FF752C403C
:102DA0008D894FF6FF7606EA85152C438480828351
:102DB000CD88A0F84050038470BD0000002C014075
:102DC000003401400A460021818B4FF2FF73194005
:102DD0004FF6FF7303EA022319438183704781860C
:102DE00070470187704781877047A0F8401070478F
:102DF000002202881D4B98420ED01D4B98420BD0EA
:102E0000B0F1804F08D01B4B984205D01A4B984226
:102E100002D01A4B984204D14FF68F731A404B8858
:102E20001A43174B984207D0164B984204D04FF6DE
:102E3000FF431A40CB881A4302808B8883850B8816
:102E400003850A4B98420BD0094B984208D00E4B91
:102E5000984205D00D4B984202D00D4B984201D1BB
:102E60000B7A03860123838270470000002C014007
:102E7000003401400004004000080040000C004005
:102E80000010004000140040004001400044014098
:102E90000048014000B587B000BF00BF01212420D9
:102EA000FFF7C2F901210803FFF7BEF92020ADF8B2
:102EB000040003208DF8060018208DF8070001A9F2
:102EC0002A48FEF713FA4020ADF8040001A927486C
:102ED000FEF70CFA8020ADF8040001A92348FEF7A4
:102EE00005FA1020ADF804008DF8070001A91F486D
:102EF000FEF7FCF910211D48FEF7D7FA0020ADF8C7
:102F000008004FF48270ADF80A000020ADF80C0004
:102F10000220ADF80E000120ADF810004002ADF81F
:102F200012000820ADF814000020ADF816000720AC
:102F3000ADF8180002A90E48FFF7D0FB01210C489C
:102F4000FFF70AFAFFF7FEFA0A49884207D10A4852
:102F5000007820F001000849087007B000BD06485D
:102F6000007840F0010004490870F6E700080140CD
:102F7000003001401740EF0030010020024600BF42
:102F800000BF8AB1012A0BD0022A02D0032A0CD139
:102F900003E04FF48050088008E00120086005E05D
:102FA0004FF4C060086001E000E000BF00BF0020F7
:102FB0007047000070B506460C46154600BF00BFBE
:102FC0000748007800F0010008B1032070BD04F547
:102FD00000742A0321033046FFF7CAF90020F5E701
:102FE0003001002010B500BF00BFFFF7ABFA084961
:102FF000884206D10748007820F001000549087092
:1030000010BD0448007840F0010002490870F7E75D
:103010001740EF00300100202DE9F04106460C4634
:10302000174600BF00BF04F5007425032846FFF7CC
:10303000B1FA4FF4805229463046FFF7C1F900201B
:10304000BDE8F08110B502A000F0E8FD10BD000061
:10305000546573745F54696D65720D0A0000000059
:10306000FEB500240027002502A9002002F0A8F8E0
:10307000002873D09DF80800362844D008DCA0F161
:103080003100052815D2DFE800F010151F273200A7
:1030900039286BD004DC37283DD038287BD15EE05E
:1030A000612867D0622876D16CE00A21012001F006
:1030B00021FF70E0012001F017FA0446012C02D133
:1030C00036A000F0ABFD66E001F0ECFB05462946BA
:1030D00037A000F0A3FD5EE03A4A4FF47A71012078
:1030E00001F0A2FE01210220FEF7A4FD53E0012120
:1030F0000220FDF7D1FE01210320FEF79BFD32A047
:1031000000F08CFD47E001210846FEF793FD31A059
:1031100000F084FD3FE0354800880A3033490880DC
:1031200008460088FF2801DD002008802F4801881C
:103130002FA000F073FD2D48008842F21071484323
:10314000FF2190FBF1F644F6206002232B4A202158
:10315000CDE900062A4801F079FD1CE01CE029A019
:1031600000F05CFD01202B49086114E00120294991
:10317000486110E001210846FEF7A8FE26A000F0F5
:103180004DFD08E001210020FEF7A0FE01210220F4
:10319000FEF79CFE00BF00BFFEBD0000C8EDBCFEF8
:1031A000B6A8CAB1C6F731206973206F6B0D0A004B
:1031B000CFB5CDB3D4CBD0D0CAB1BCE425640D0A11
:1031C00000000000FD6700086361736535206F6BC8
:1031D0000D0A00004C45445F53544152545F574F11
:1031E000524B206973206F6B0D0A00004C000020C9
:1031F000647574793A25640D0A00000000040040EB
:10320000000C01402D2D2D2D2D2D2D2D2D2D0D0A98
:1032100000000000001001404D75736963506C613F
:103220007920456E640D0A0010B5024800F0F5F8EB
:1032300010BD0000A411002001F40072B2F5007F5F
:1032400000D100BFCA430280704721B1828942F495
:103250000052828104E082894DF6FF731A40828118
:10326000704770B50246002400230025002040F678
:103270006A16B14200D100BFC1F3421501F01F032D
:10328000012606FA03F3012D02D19689334006E0A8
:10329000022D02D1168A334001E0968A33400C1287
:1032A000012606FA04F41688344013B10CB101204B
:1032B00000E0002070BDF0B5034600240026002584
:1032C000002040F66A17B94200D100BF1846C1F38A
:1032D000421401F01F06012707FA06F5012C01D15F
:1032E0000C3004E0022C01D1103000E014301AB18F
:1032F00007682F43076002E00768AF430760F0BD2F
:103300002DE9F04786B005460E460024A24600BFD0
:10331000A1460027B08900B100BF2F462C8A4CF689
:10332000FF700440F08804432C82AC894EF6F31001
:103330000440B08831890843718908430443AC8153
:10334000AC8A4FF6FF400440B0890443AC8201A828
:10335000FEF77AFF1F48874202D1DDF810A001E096
:10336000DDF80CA0A88900F4004040B10AEBCA00C7
:1033700000EB0A1031684900B0FBF1F807E00AEBF6
:10338000CA0000EB0A1031688900B0FBF1F8642034
:10339000B8FBF0F004012009642101FB1089A88921
:1033A00000F4004040B1322000EBC900B0FBF1F066
:1033B00000F00700044308E0322000EB091064210C
:1033C000B0FBF1F000F00F0004432C8106B0BDE823
:1033D000F08700000038014001468888C0F30800EB
:1033E0007047C1F308028280704710B50246538BC4
:1033F0000BB9002010BD148B9068005D0870108B15
:10340000401C80B21083D489A04201DB00201083CD
:10341000508B401E50830120ECE770B5044640F20B
:1034200025512068FFF71DFFE0B12068FFF7D4FFAA
:10343000C5B2E18AA0684554E08A401C80B2E082AF
:10344000E189884201DB0020E082608BE1898842CB
:1034500002DA608B401C6083606A10B12846616AA2
:10346000884700BF40F227712068FFF7FAFE08B3D3
:10347000A08A60B9002240F227712068FFF71BFF85
:10348000012240F226612068FFF715FF37E0638ACA
:103490006268D15C2068FFF7A4FF608A401C80B29C
:1034A0006082A189884201DB00206082A08A401EE0
:1034B000A08224E040F226612068FFF7D2FEF0B13E
:1034C000A08A50B9002240F226612068FFF7F3FE7F
:1034D000206AA0B1206A804711E0638A6268D15CEB
:1034E0002068FFF77EFF608A401C80B26082A1895D
:1034F000884201DB00206082A08A401EA08270BD4D
:10350000F8B504460E46174600251DE008E0A08ADF
:103510000090A089BDF80010884200DD01E000BFE6
:10352000F5E700BF705D228A61688854208A401CDC
:1035300080B22082A189884201DB00202082A08AFB
:10354000401CA082681C85B2BD42DFDB012240F234
:1035500027712068FFF7AFFEF8BD00000A480B494D
:1035600008600B4848600B4888604FF48060888191
:10357000C881002008824882C882088348838882E4
:10358000C86108624862704700380140A4110020F9
:10359000CC110020CC15002000BFFEE710B541F68D
:1035A000066000F001FB10BD10B50024082114488E
:1035B000FDF779FF142001F013F840211148FDF7C1
:1035C00074FF4FF480511048FDF76FFF08210C483D
:1035D000FDF76BFF04E0601CC4B2322001F01CF860
:1035E00008210848FDF756FF08B9C82CF3DB142062
:1035F00000F0F6FFC82C01DB012010BD0020FCE725
:103600000010014000180140000C014000B587B0D7
:1036100001215820FEF708FE0820ADF804004820DC
:103620008DF8070003208DF8060001A92E48FDF74C
:103630005DFE0820ADF8040010208DF8070001A9F8
:103640002A48FDF753FE01218803FEF7DDFD4FF404
:103650006040ADF8040003208DF8060018208DF8B6
:10366000070001A92248FDF741FE4FF48050ADF854
:10367000040010208DF8070001A91D48FDF736FE53
:103680004020ADF8040010208DF8070001A916486D
:10369000FDF72CFE0020ADF808004FF48270ADF865
:1036A0000A000020ADF80C000220ADF80E00012049
:1036B000ADF810004002ADF812003820ADF814004B
:1036C0000020ADF816000720ADF8180002A909483F
:1036D000FFF704F801210748FEF73EFEFF20FEF742
:1036E0001FFE07B000BD000000180140001001409F
:1036F000000C0140003800402DE9F04704468846A0
:1037000000252DE02846691C8DB234F8107028463B
:10371000691C8DB234F8106006F4004088B1C6F31D
:103720000E062846691C8DB234F8109003E0F8B2FA
:10373000494600F045FA301EA6F101018EB20FD0C5
:10374000F5E708E02846691C8DB234F81090F8B20D
:10375000494600F035FA301EA6F101018EB2F1D1D2
:103760004545CFDBBDE8F08770B50546002400BFB6
:1037700008211648FDF78EFE0028F9D000F0D4F895
:1037800040211248FDF791FE4FF480511048FDF79B
:103790008AFE032000F0BDF8284600F0BAF8FF20AA
:1037A00000F0B7F804464FF6FF7000EA0424FF204B
:1037B00000F0AFF8204484B24FF480510448FDF784
:1037C00074FE00F0ACF8204670BD00000018014007
:1037D000000C014010B5FFF7E7FE4FF40261002036
:1037E00000F0EEF900BF08211648FDF753FE00284F
:1037F000F9D000F099F840211248FDF754FE4D2011
:1038000000F087F8EA2000F084F86D2000F081F8DD
:10381000542000F07EF8002000F07BF8002000F03B
:1038200078F8002000F075F8002000F072F896207B
:1038300000F0D6FE40210348FDF737FE0820FFF7D1
:1038400093FF10BD0018014010B50021042000F0C6
:10385000B7F90021042000F0B3F910BD70B588B0AD
:10386000002604E000200DF80600701CC6B2202ED1
:10387000F8DB0020FFF778FF044644F0080444F02A
:1038800004042146002000F09BF900250EE0684664
:1038900000F050F850B905F1200085B20020FFF784
:1038A00063FF044604F0080000B902E0B5F5006FBC
:1038B000EDDB00BFB5F5006F19DAFFF76FFEC4B29C
:1038C000002604E0E0B20DF80600701CC6B2202EFF
:1038D000F8DB002506E0684600F02CF810B905F189
:1038E000200085B240F604008542F4DB01E000F0E0
:1038F00017F90820FFF738FF04460920FFF734FFC7
:10390000204484B21CB1FFF74FFE00F009F908B063
:1039100070BD10B504462046FEF702FD10BD10B57F
:103920001020FEF7F9FE10BD10B52020FEF7F4FEC2
:1039300010BD000070B5054608210D48FDF7AAFD31
:1039400088B140210A48FDF7AEFD002404E0285D5F
:10395000FFF7DFFF601CC4B2202CF8DB40210448D5
:10396000FDF7A3FD01E0012070BD0020FCE7000091
:103970000018014010B50849087800F05DF8064CC1
:103980002379E278A178607800F008F82146487938
:1039900000F037F810BD0000080100202DE9F047C5
:1039A00006460F4690461D460024A14605B90AE08A
:1039B000082D04DDA5F108004FFA80F903E0A5F118
:1039C00009004FFA80F909F00F044FF6FF7000EA82
:1039D000041408F00F0004444FF6FF7000EA0414CA
:1039E00007F00F0004444FF6FF7000EA041406F0DD
:1039F0000F00204484B22146022000F0E1F8BDE827
:103A0000F08770B505460020FFF7AEFE044605F0CE
:103A1000010010B144F0100401E024F0200405F08E
:103A2000020010B144F0800401E024F0800421463B
:103A3000002000F0C5F870BD70B505460024C5F142
:103A4000FE0084B24FF6FF7000EA0424C5F1FE00C8
:103A5000204484B221460B2000F0B2F870BD000073
:103A600010B5FFF7A1FD42F220010B2000F0A8F8ED
:103A70004FF40261002000F0A3F800BF082127489E
:103A8000FDF708FD0028F9D0FFF74EFF402123483D
:103A9000FDF709FD5320FFF73CFFEF20FFF739FF4B
:103AA0006E20FFF736FF2420FFF733FF0020FFF7DB
:103AB00030FF0020FFF72DFF0020FFF72AFF002036
:103AC000FFF727FF642000F08BFD40211348FDF72E
:103AD000ECFC40211148FDF7E6FC4520FFF719FFFB
:103AE0007820FFF716FF6920FFF713FF7420FFF718
:103AF00010FF0020FFF70DFF0020FFF70AFF002056
:103B0000FFF707FF0020FFF704FF642000F068FDC7
:103B100040210248FDF7C9FC10BD0000001801401B
:103B200010B5002400BF08211E48FDF7B3FC002893
:103B3000F9D0FF20FFF7EDFE00240DE040F6040170
:103B4000002000F03DF8022000F04AFD2046611CF4
:103B5000CCB2642800DD05E00020FFF705FEB0F5DB
:103B6000006FEBD100BF00BF08210E48FDF792FCAB
:103B70000028F9D000240AE04FF41841032000F097
:103B80001FF82046611CCCB2642800DD05E003204C
:103B9000FFF7EAFDB0F5184FEED100BF142000F09A
:103BA0001FFD10BD0018014070B5044621460720D6
:103BB00000F006F80620FFF7D7FD0546284670BD41
:103BC00070B505460C4600BF08211248FDF762FC9F
:103BD0000028F9D0FFF7A8FE40210E48FDF765FC4C
:103BE0004FF480510C48FDF75EFC0220FFF791FE78
:103BF0002846FFF78EFE2012FFF78BFEE0B2FFF79C
:103C000088FE4FF480510448FDF74FFCFFF787FE14
:103C100070BD000000180140000C01400FB4054BBE
:103C200010B503A9044A029800F0DAF810BC5DF858
:103C300014FB0000B56400084001002002E008C841
:103C4000121F08C1002AFAD170477047002001E016
:103C500001C1121F002AFBD1704700002DE9FF5F50
:103C600082B00021DDE90430020DDDF840B00343ED
:103C700018D044F61050A2F2FF32424315141198A6
:103C800001281FD0A5EB0B00401C5FEA000A4FF093
:103C900000064E4FDFF83891B046504615D5CAF1B0
:103CA000000413E0119801244AA3012801D16FEA0E
:103CB0000B010298119AC0E90031C0E9024206B036
:103CC000BDE8F09FCBF10000DFE704460021404A49
:103CD000491842EB0450CDE9001012E0E00707D08C
:103CE00032463B4640464946FCF749FB80468946FA
:103CF00032463B4610461946FCF741FB06460F4646
:103D00006410002CEAD1DDE90401DDE90023BAF1F9
:103D1000000F06DAFCF733FB42464B46FCF72FFB5D
:103D200005E0FCF79EFB42464B46FCF79AFB044637
:103D30000E460022284BFCF76FFD03D84FF0FF30F2
:103D4000014607E00022254B20463146FCF770FA79
:103D5000FCF74AFD102409E0002C0ADB0A220023AC
:103D6000FCF74CFC039B30321A55641E50EA0102EA
:103D7000F2D1641C039AC4F111031444119A012A6C
:103D800003D0012208430DD10AE0084304D00020EB
:103D90004FF0110B119072E7A3EB0B056D1E0DE0B8
:103DA0005B4504DD4FF0000205F1010504E003DA94
:103DB0004FF00002A5F10105002AECD002981199FC
:103DC000C0E90231C0E9004579E700000000144075
:103DD0000000F03F300000000000F0430000E03F32
:103DE0002DE9FF4F95B09A46884606460025EEE13C
:103DF000252877D100242746F94A0121039400E0C1
:103E0000044316F8013F203B01FA03F01042F7D1BA
:103E100030782A2811D06FF02F033078A0F13002CB
:103E2000092A16D8039A44F0020402EB820203EB3B
:103E300042021044761C0390EFE758F8042B0392DB
:103E4000002A03DA504244F40054039044F0020480
:103E5000761C30782E2816D116F8010F44F0040491
:103E60002A280DD06FF02F023078A0F13003092BF3
:103E700009D807EB870302EB4303C718761CF3E767
:103E800058F8047B761C30786C280FD006DC4C2860
:103E900017D068280DD06A2814D104E0742810D0F7
:103EA0007A280FD10DE044F400140AE044F48014A1
:103EB00001E044F440147278824202D104F5801487
:103EC000761C761C307866280BD013DC582877D007
:103ED00009DC002875D04528F6D04628F4D04728BC
:103EE0001AD193E118E0632835D0642879D0652889
:103EF00012D18BE1702873D008DC6728F1D06928D3
:103F00006FD06E280DD06F2806D1ACE073282CD06E
:103F1000752874D0782853D05246179990476D1C55
:103F200054E1C4F30250022809D003280DD0D8F878
:103F3000001004280DD00D6008F1040846E1D8F8FF
:103F40000010EA17C1E90052F6E7D8F800100D801A
:103F5000F2E70D70F0E718F8041B8DF80010002050
:103F60008DF80100EB46012003E058F804BB4FF048
:103F7000FF3061074FF0000102D40DE009F10101AB
:103F80008946B9420FDA8145F8DB1BF80910002990
:103F9000F4D108E009F1010189468142FADB1BF8FE
:103FA00009100029F6D103985346A0EB09072146D2
:103FB0003846179A00F080FA284400EB090507E01C
:103FC00044E008E10DE01BF8010B524617999047B9
:103FD000B9F10109F7D2534621463846179AF2E063
:103FE00039E00A21C4F302524FF0000B0091022A7B
:103FF00006D058F8040BC117032A09D00AE023E0C1
:1040000008F1070020F00702F2E80201904605E0FF
:1040100000B2C117042A01D140B2C117002906DA43
:104020000A460021404261EB02012D2202E02205F6
:1040300004D52B228DF80420012203E0E20701D0F1
:104040002022F7E7914657E00A2100E010214FF0C7
:10405000000B00910BE010214FF0000B44F0040422
:104060000827009103E008204FF0000B0090C4F3F4
:104070000252022A05D058F8040B0021032A08D066
:1040800008E008F1070020F00702F2E8020190467C
:1040900003E080B2042A00D1C0B24FF00009220729
:1040A0002AD53278702A07D0DDF800C08CF0100CC9
:1040B0005CEA0B0C05D00EE040228DF804200122B2
:1040C00008E050EA010306D030238DF804308DF863
:1040D000052002229146009B83F0080353EA0B035C
:1040E0000AD150EA010201D1620705D530228DF8CC
:1040F00004204FF001097F1E3278582A04D039A2DB
:104100000C920CAA02920BE03BA2F9E75B46009AE4
:10411000FCF774FA0C9B9B5C029A521E029213707D
:1041200050EA0102F2D1029804A9081A00F1200B0A
:10413000600702D524F4803400E001275F4502DDEA
:10414000A7EB0B0000E0002000EB0B0100900398B0
:104150004944401A0390E00306D453462146179A77
:10416000039800F0A9F90544002706E001A852468B
:10417000C05D179990476D1C7F1C4F45F6DBE0032F
:104180000CD553462146179A039800F095F905443B
:1041900004E030205246179990476D1C0099481E44
:1041A00000900029F5DC08E0029802995246007858
:1041B000491C0291179990476D1CBBF10001ABF1AE
:1041C000010BF1DC5BE100F065F90544761C307809
:1041D00000287FF40DAE19B02846BDE8F08F00002E
:1041E00009280100303132333435363738396162CD
:1041F0006364656600000000303132333435363791
:10420000383941424344454600000000600700D46D
:10421000062708F1070020F00700F0E80223804697
:1042200003F0004C5FEA0C0001D097A009E02005E4
:1042300001D596A005E0E00701D095A001E0AFF21E
:104240004C001390307823F0004365280CD006DC36
:10425000452809D046281DD047287FD13BE0662855
:1042600018D067287AD136E00021112F01DB112008
:1042700000E0781CCDE9000104A90CA8FFF7EEFCD2
:10428000DDE90D010C9A4FF0000B07F101091092C6
:1042900000914EE04FF000400097CDE9011004A9D5
:1042A0000CA8FFF7DBFCDDE90D020C9B0F994FF02A
:1042B000000B91461093009211B9791C00EB010993
:1042C000B7EB090003D4C0F1FF3B07F10109A9EBEB
:1042D0000700019042E0012F00DA01270021112F91
:1042E00001DD112000E03846CDE9000104A90CA849
:1042F000FFF7B4FCDDE90D010C9A00914FF0000BC3
:10430000B946109221070FD4009A4A4503DA914624
:1043100001E0A9F10109B9F1010F05DD109AA9F138
:104320000101515C3029F4D0B84202DA10F1040FD7
:1043300003DA0121CDE9011010E0002803DC8344F9
:10434000A9EB000102E0411C494500DD8946A0EBD4
:104350000B00401C01904FF000400290200705D454
:104360000198484502DB4FF0FF30019000208DF8A6
:104370004B0002980DF14B07B0F1004F25D0022001
:104380000C902B200D90029800280CDA40420290ED
:104390002D200D9007E00A210298FCF719F9303121
:1043A000029007F8011D0C99481E0C900029F2DCC0
:1043B00002980028EFD1791E0D980870307800F02F
:1043C000200040F0450007F8020D11A8C01BC01DD9
:1043D00002901398007800B1012000EB09010198C8
:1043E00001EBE071029801440398401A401E0390CB
:1043F000E00306D453462146179A039800F05CF870
:1044000005441398007818B15246179990476D1CCF
:10441000E00323D553462146179A039800F04CF841
:1044200005441BE0BBF1000F07DB0098584504DD95
:104430001098179910F80B0001E017993020524698
:10444000904701980BF1010B401E05F10105019009
:1044500004D12E205246179990476D1CB9F10001E6
:10446000A9F10109DEDC05E017F8010B52461799A6
:1044700090476D1C0299481E02900029F4DC5346B7
:104480002146179A03989EE62D0000002B0000009D
:10449000200000002DE9F041044600251E46174685
:1044A000880404D405E039462020B0476D1C641E02
:1044B000F9D52846BDE8F0812DE9F04104460025F4
:1044C0001E469046C80301D5302700E02027880407
:1044D00004D505E041463846B0476D1C641EF9D549
:1044E0002846BDE8F08100000146042901DB0020D8
:1044F000704701EB4100084A02EB80004078012838
:1045000008D1002001EB4102034B03EB8202507003
:104510000120EDE70020EBE774110020F8B5054617
:104520000C46284600F050F906460121FDF77CFEB6
:10453000ADF8004010208DF8030003208DF8020034
:1045400069462846FCF7D2FEF8BD00002DE9F84385
:1045500006460D4614469846304600F035F90746A3
:104560000121FDF761FE194884420BD018488442AE
:1045700008D01848844205D01748844202D0174812
:10458000844207D1204600F055F907460121FDF786
:104590004BFE06E0204600F04DF907460121FDF7ED
:1045A00033FE204600F0C2F807460121FCF72AFF3F
:1045B000ADF8005018208DF8030003208DF802009C
:1045C00069463046FCF792FEBDE8F883002C0140B6
:1045D00000340140004C01400050014000540140B3
:1045E00010B5044604B910BD012C00D102240848BE
:1045F000046000200749087006E000F059F90548FA
:104600000078012800D100E0F7E700BF00BFEAE72B
:104610000400002008000020F0B5034600224FF0FF
:10462000E02675690F4E36680F4FB6FBF7F606FBAE
:1046300003F400BF4FF0E026B16910E04FF0E02630
:10464000B06988420BD0884202D20E1A324402E08E
:104650002E1A0E4432440146A24200D300E0EDE798
:1046600000BFF0BDF400002040420F0070B50546C9
:104670002D4800EB05142068804700283ED02079A3
:10468000052802DA052020714CE020790A2803DA97
:104690002079401C207145E0A07A38B90120A07231
:1046A00005EB4501491CC8B200F0ACFA208900288E
:1046B00038DDE088218988420DDAE088401C80B22C
:1046C000E080218988422DD105EB4501C91CC8B283
:1046D00000F098FA26E0E07A002823DD207B401CD9
:1046E000C0B22073E17A88421CDB0020207305EB06
:1046F0004501491CC8B200F085FA13E0207905286D
:1047000002DD052020710AE0207918B12079401ED1
:10471000207104E0A07A012801D10020A0720020BD
:10472000E080207370BD0000CC19002001460020FD
:104730000F4A914201D10F4818E0B1F1804F01D1E9
:104740000D4813E00D4A914201D10D480EE00D4A8B
:10475000914201D1881409E00B4A914206D00B4ADC
:10476000914203D00A4A914200D000BF7047000036
:10477000002C014040001600000118000004004019
:1047800000081A0000080040000C00400010004023
:10479000001400400B48807A0A4AD27A904201D134
:1047A000002070470748807A064A115C1046807ADC
:1047B000401CC0B290720A2801DB002090720846AB
:1047C000EFE70000EC19002001460020124A914258
:1047D00001D104201CE0114A914201D1082017E0C8
:1047E0000F4A914201D1102012E00E4A914201D1AC
:1047F00020200DE00C4A914201D1402008E00B4AF4
:10480000914201D1802003E0094A914200D18815EC
:1048100040F001007047000000080140000C01401A
:10482000001001400014014000180140001C01402C
:104830000020014001460020134A914201D1C814D2
:1048400021E0124A914201D148141CE0B1F1804F9D
:1048500001D1012017E00E4A914201D1022012E05D
:104860000C4A914201D104200DE00B4A914201D142
:10487000082008E0094A914201D1102003E0084ACB
:10488000914200D120207047002C014000340140AB
:104890000004004000080040000C004000100040F0
:1048A0000014004001490868704700000C00002017
:1048B0007047000010B54FF44070FDF77DFB00F02D
:1048C00033F900F0D7F801F02DFF00F085F900F082
:1048D0009BFB00F03FF800F02DF900F079F8FEF7AF
:1048E00095FEFEF777FF044621460EA0FFF796F9E6
:1048F000FFF7B6F8FEF758FEFFF712F901220CA1F8
:104900000C4801F0EFF80C4908600846006830B127
:104910000846016809A0FFF781F900BFFEE7FDF72F
:1049200057FB10BD7673313035333A2534580A00C1
:10493000313A0000440100200000002066206D6F25
:10494000756E74204572726F7220282564290D0AD5
:104950000000000010B5FCF79DF900F001F810BD53
:1049600010B50B220E490F48FCF729FB0B220E490C
:104970000E48FCF724FB0B220D490E48FCF71FFBE9
:104980000B220D490D48FCF71AFB0B220C490D4870
:10499000FCF715FB0B220C490C48FCF710FB10BD73
:1049A000541A00206C1A00207C1A0020941A00204F
:1049B000A41A0020BC1A0020CC1A0020E41A0020FF
:1049C000F41A00200C1B00201C1B0020341B0020AC
:1049D00008B501211020FDF727FC01200949486195
:1049E00010208DF8030003208DF802000120ADF89F
:1049F000000069460348FCF779FC0020024908736F
:104A000008BD000000100140201A00207FB50121E0
:104A10000846FDF7F9FB1548006846081448B6FB40
:104A2000F0F085B24FF6FF74ADF80840ADF80450D1
:104A30000020ADF80A00ADF8060001A94FF0804053
:104A4000FEF7D6F901218807FEF735F81C208DF80E
:104A5000000004208DF8010000208DF802000120E4
:104A60008DF803006846FDF76FFA7FBDF400002063
:104A700040420F0010B500F027F800F001F810BD1B
:104A800008B501214FF4CA70FDF7CEFB04208DF864
:104A9000030003208DF802000120ADF800006946F4
:104AA0000748FCF723FC4FF40050ADF80000042049
:104AB0008DF8030069460348FCF718FC08BD0000A8
:104AC00000080140001001400021134A9172D17288
:104AD0001173002018E06421104A02EB00121181CA
:104AE00002210E4A02EB0012117100210B4A02EB67
:104AF00000129172094A02EB0012D172074A02EBCE
:104B000000121173411CC8B20228E4DB0449034AB5
:104B10001160044911617047EC190020CC19002084
:104B2000891A0008A11A000810B5FDF739F9FCF739
:104B3000EBF910BD70B5002416E0002004EB440131
:104B4000214A02EB8101486004EB440102EB810140
:104B5000886004EB440102EB8101487004EB4401DE
:104B600002F82100601CC4B2042CE6DBFDF7C4FE91
:104B7000164800684FF47A72B0FBF2F1B1F1807F11
:104B800000D31DE021F07F40401E4FF0E022506135
:104B900050170F22002807DA13071E0E0C4B00F0E7
:104BA0000F052D1F5E5503E013071D0E094B1D5405
:104BB00000BF00204FF0E02290610720106100BF8D
:104BC000FFF724FF70BD000074110020F4000020E6
:104BD00018ED00E000E400E010B5FEF7BFFCFCF7C4
:104BE0008DFCFDF79BFBFCF713FA10BD10B50024FC
:104BF00004E02046FFF73AFD601CC4B2022CF8DB4B
:104C000010BD00000649C97A054A50541146C97AB8
:104C1000491CC9B2D1720A2901DB0021D172704747
:104C2000EC19002010B5FEF71BFAFDF78FF8FCF722
:104C3000FDF8FCF7ADFCFBF745FE10BD10B5FCF729
:104C40003DFFFDF771FAFDF7DFF810BD2DE9FF4FCD
:104C500087B0834614461D46DDE9146ABAF1000F99
:104C60000FD100212046FDF726FF58460899FFF78F
:104C700055FC002258460899FCF719FC0BB0BDE81A
:104C8000F08F42F2107082450DD100212046FDF7D1
:104C900012FF58460899FFF741FC0122584608992F
:104CA000FCF705FCEAE72B46224658460899FFF731
:104CB0004DFC504884420BD04F48844208D04F48A6
:104CC000844205D04E48844202D04E48844203D1EB
:104CD0004D48D0F8008003E04B4800684FEA500888
:104CE000642E0AD242F20F7942F21070B8FBF0F053
:104CF000B0FBF6F0401E87B213E040F6B8308642B3
:104D000009D24FF063096420B8FBF0F0B0FBF6F075
:104D1000401E87B205E04FF00009B8FBF6F0401ED8
:104D200087B2ADF81470ADF810900020ADF8160001
:104D3000ADF812008DF8180004A92046FEF758F8C7
:104D40006020ADF800000120ADF802000AFB07F07A
:104D500042F21071B0FBF1F080B2ADF80600022013
:104D6000ADF808000020ADF80400ADF80A00ADF879
:104D70000C00ADF80E00012D08D169462046FDF764
:104D8000D3FE08212046FDF71BFF1FE0022D08D1AE
:104D900069462046FDF71EFF08212046FDF76CFFFF
:104DA00014E0032D08D169462046FDF773FF082162
:104DB0002046FDF7BFFF09E0042D07D169462046D4
:104DC000FDF7C2FF08212046FDF7FCFF0121204628
:104DD000FDF762FE01212046FDF76DFE0548844285
:104DE00002D00548844203D101212046FDF76FFE21
:104DF00000BF43E7002C014000340140004C01405B
:104E00000050014000540140F4000020416851B1BD
:104E10004168491E416031B9012141700178012981
:104E200001D18168416070472DE9F04104460E468A
:104E30001546052E01DB701F86B24FF08040FDF74E
:104E400055FE0746B8191FFA80F8012C0FD12548E6
:104E500005604146A007FDF7C2FF02214807FDF7A4
:104E600027FE012202214807FDF754FE38E0022CFC
:104E70000FD11D48056041466007FDF7B2FF0421D0
:104E80000807FDF715FE012204210807FDF742FE81
:104E900026E0032C10D11548056041464FF08040B4
:104EA000FDF7A1FF0821C806FDF702FE0122082137
:104EB000C806FDF72FFE13E0042C0FD10C48056047
:104EC00041462007FDF791FF10218806FDF7F0FD10
:104ED000012210218806FDF71DFE01E0BDE8F081EA
:104EE00000BFFBE710000020140000201800002085
:104EF0001C00002070B504460D46042C06DB0F4A4A
:104F00000FA114A0FEF78AFE00BFFEE704EB4400E9
:104F1000184901EB8000456004EB440001EB800080
:104F20008560002004EB4401124A02EB81014870C5
:104F300004EB440102F8210070BD0000E06C0008A1
:104F40004253505C7372635C6273705F74696D6529
:104F5000722E63004572726F723A2066696C65202A
:104F600025732C2066756E6374696F6E2025732817
:104F7000290D0A00741100201CB5044644F6206077
:104F80000423044A0221CDE900040348FFF75EFE32
:104F90001CBD000000040040000C01401CB504468C
:104FA00044F620600323044A0121CDE900040348AC
:104FB000FFF74CFE1CBD000000040040000C014047
:104FC0000EB501212120FDF72FF904208DF80B00EB
:104FD0008020ADF8080002A90A48FCF787F90721EC
:104FE0000320FCF763F98020009000208DF8040076
:104FF0000C208DF8050001208DF806006846FCF7AE
:105000000BF90EBD0014014010B500F005F8FFF7D4
:10501000D7FFFCF78AFF10BD10B5002003E0002188
:10502000084A1154401C0A28F9DB0A210548FBF7FD
:10503000A4F80448044908600A2088800020C88039
:10504000088110BD3C1A0020301A00201CB504460F
:1050500044F620600223044A2021CDE900040348DD
:10506000FFF7F4FD1CBD000000040040000C0140EF
:1050700070B504460D4600202071401EE0622946AE
:10508000204601F0A1FB08B1032070BD94F82E1258
:1050900094F82F0241EA00204AF65521884201D0B7
:1050A0000220F2E794F86900010694F8680041EAEA
:1050B000004194F8670041EA002094F86610084324
:1050C00020F07F400D49884201D10020DDE794F8AF
:1050D0008500010694F8840041EA004194F88300B9
:1050E00041EA002094F88210084320F07F400349F1
:1050F000884201D10020C8E70120C6E7464154009C
:10510000024600E0521C107810B110788842F9D1A4
:10511000107870470246891E5069801E884201D867
:10512000002070479378906A01FB0300F9E70000C4
:105130002DE9F04705460C46207820F04000401E3F
:1051400000EB800101EBC00600274FF0010800BF13
:105150001A48C05D205C1949C95D2144497840EA7C
:105160000129B8F1000F10D0484600F01BFF80461F
:10517000642E07D23146761C35F8110000F012FF7C
:10518000404508D00020BDE8F0874FF6FF7081450C
:1051900001D00020F7E7781C07460D28D8D32078E7
:1051A00000F0400038B1B8F1000F04D035F8160017
:1051B00008B10020E7E70120E5E70000509800086B
:1051C00070B505460E462846FBF70AFF04460CB9A3
:1051D000002070BD31462046FEF707F9F9E72DE9BA
:1051E000F04105460E4617462846FBF7F9FE0446F1
:1051F0000CB9BDE8F081E06908B1E06980473A4642
:1052000031462046FEF77CF900BFF2E713B50446AD
:10521000012201A92046FFF7E2FF1CBD2DE9F0475E
:1052200004468946B9F1000F06D1E76817B16069F5
:10523000B84215D8012713E04946204601F0A8F9E5
:105240000646022E02D20120BDE8F087701C08B984
:105250003046F9E76069B04201D93046F4E74F467D
:105260003D4600BF6D1C6069A84204D80225BD42BE
:1052700001D90020E8E72946204601F089F90646D1
:1052800006B909E0701C08B1012E01D13046DBE7F8
:10529000BD42E7D10020D7E700BF6FF0704229463A
:1052A000204601F0BDFA8046B8F1000F08D1B9F1EF
:1052B000000F05D02A464946204601F0B1FA804643
:1052C000B8F1000F0BD1E5602069401C78B120696E
:1052D000401E2061607940F00100607107E0B8F184
:1052E000010F02D14FF0FF3000E0012005462846B3
:1052F000AAE700002DE9F34F83B0814604980068C7
:10530000019002E00198401C0190019800782F283C
:10531000F8D0019800785C28F4D0D9F81CA00025BA
:105320002F4600BF38467F1C01990C5C202C03DB04
:105330002F2C01D05C2C00D132E0642D03D3062049
:1053400005B0BDE8F08FE4B2812C13DBE0B2FE289B
:1053500010DC38467F1C01990E5C402E01DB7E2E4E
:1053600005DD802E01DBFE2E01DD0620E8E706EBE1
:10537000042084B20121204600F0D6FD04460CB979
:105380000620DDE7802C06DA214671A0FFF7B8FE83
:1053900008B10620D4E728466D1C2AF81040C1E762
:1053A00000BF0198C11904980160202C01DA042083
:1053B00000E00020804608E0681E3AF81040202CEB
:1053C00002D02E2C00D002E06D1E002DF4D100BFC3
:1053D0000DB90620B4E700202AF815000B22202181
:1053E000D9F8180001F0E6F9002700E07F1C3AF830
:1053F00017002028FAD03AF817002E28F6D00FB15F
:1054000048F0030800E06D1E25B1681E3AF8100050
:105410002E28F8D10020064602904FF0080B00BF5E
:1054200038467F1C3AF8104004B963E0202C03D0C2
:105430002E2C04D1AF4202D048F00308F0E70298C6
:10544000584501D2AF4214D1BBF10B0F02D148F045
:1054500003084FE0AF4201D048F00308AF4200D943
:1054600048E02F46082002904FF00B0BB006060EC6
:10547000D6E7802C09DB204600F094FD0021009047
:1054800000F052FD044648F00208FF2C11DDABF19C
:1054900001000299884204D848F00308CDF808B00A
:1054A000BEE72212D9F818300298411C02911A5412
:1054B00019E024B1214629A0FFF722FE18B15F248C
:1054C00048F003080FE0412C04DB5A2C02DC46F0C4
:1054D000020608E0612C06DB7A2C04DC46F00106AB
:1054E000A4F1200084B2D9F818300298411C02912E
:1054F0001C5495E700BFD9F818000078E52803D1BF
:105500000520D9F818100870BBF1080F01D1B006BA
:10551000060E06F00C000C2803D006F0030003284A
:1055200001D148F0020808F0020058B906F0030063
:10553000012801D148F0100806F00C00042801D120
:1055400048F00808D9F8180080F80B800020F7E62A
:10555000222A3A3C3E3F7C7F000000002B2C3B3D42
:105560005B5D00002DE9F04104460E460021204617
:1055700000F0CEF90546EDB9002700BF216920688B
:1055800001F022F9054605B113E060690078E528CD
:1055900002D06069007820B9781C0746B04201D17A
:1055A00007E000270121204600F07FF80546002D86
:1055B000E4D000BF042D00D107252846BDE8F081C6
:1055C0002DE9F04704460021204600F0A1F90746E6
:1055D00017B13846BDE8F0874FF0FF09CA464FF6CD
:1055E000FF70208400BF2169206801F0EDF80746B4
:1055F00007B157E065692E780EB9042752E0E87AC2
:1056000000F03F08E52E05D008F0080040B1B8F1E1
:105610000F0F05D04FF0FF094FF6FF7020843AE0DE
:10562000B8F10F0F1CD1E06978B306F0400030B13B
:1056300095F80DA026F04006B146E08820844E453E
:105640000AD1687B504507D12946E069FFF770FD14
:1056500010B1A9F1010000E0FF2000F0FF091AE0FD
:10566000B9F1000F05D1284601F0DCF9504500D111
:1056700018E0A069C07A00F0010038B90B22284672
:10568000A16901F077F808B90CE004E04FF0FF09D8
:105690004FF6FF7020840021204600F006F80746F0
:1056A000002FA0D000BF384694E72DE9F041044612
:1056B0008846E088461CB0B208B1206910B90420C1
:1056C000BDE8F08121684889C11700EBD16149111B
:1056D000B6FBF1F201FB1261002972D12069401C76
:1056E0002061E06828B920680089B04269D80420A8
:1056F000E6E721684889C11700EBD1614911B6FB83
:10570000F1F122689278521E1140002959D1E168C6
:10571000206800F03DFF0546012D01D80220CFE7AB
:10572000681C08B90120CBE720684069A84242D82C
:10573000B8F1000F01D10420C2E7E1682068FFF74B
:105740006DFD05460DB90720BAE7012D01D10220F4
:10575000B6E7681C08B90120B2E7206801F0D6F965
:1057600008B10120ACE721684A8901F1300000212D
:1057700001F020F829462068FFF7CCFC2168C862B8
:1057800000270EE0012021680871206801F0BEF9B1
:1057900008B1012094E72068C06A401C2168C862F3
:1057A0007F1C20688078B842ECD82068C06AC01B93
:1057B0002168C86200BFE56029462068FFF7AAFC9F
:1057C0002061E68021684889C11700EBD161491149
:1057D000B6FBF1F201FB12612268303202EB41119B
:1057E000616100206CE72DE9FE4F0446D4F8188073
:1057F000D4F81C900C224146684600F0CEFF00BF52
:105800009DF80B0000F0010020B3002088F80B0089
:10581000E06101260CE033464A466946404600F006
:1058200053FE2046FFF7CCFE054605B102E0761C8C
:10583000642EF0D300BF642E02D10720BDE8FE8F96
:10584000042D01D02846F9E79DF80B0088F80B00DD
:10585000C4F81C909DF80B0000F0020060B1002617
:1058600000E0761C39F816000028FAD106F119007C
:105870000D21B0FBF1F700E0012739462046FFF784
:1058800071FE054645BB781E071E25D0E088C11B6A
:10589000204600F03DF80546F5B9A06901F0C2F8D0
:1058A000824600BF2169206800F08EFF054605B1E1
:1058B00011E0FAB253466169E06900F073FD01201E
:1058C0002168087100212046FFF7EFFE054615B953
:1058D000781E071EE6D100BFC5B92169206800F017
:1058E00073FF054695B920220021606900F062FF30
:1058F0000B22D4E9050100F050FFA069C07A00F046
:10590000180061690873012021680871284695E72D
:105910002DE9F04104460E46E680A568012D03D02E
:1059200020684069A84202D80220BDE8F0812DB964
:1059300020680078032801D12068456A45B92068AD
:105940000089B04201D80220EFE72068476A24E0CE
:1059500021684889C11700EBD1614911226892780A
:1059600001FB02F812E02946206800F011FE05460E
:10597000681C08B90120D8E7022D03D320684069CC
:10598000A84201D80220D0E7A6EB08064645EAD295
:1059900029462068FFF7BEFB0746E5600FB90220E5
:1059A000C3E721684889C11700EBD1614911B6FBF3
:1059B000F1F13944216121684889C11700EBD161B7
:1059C0004911B6FBF1F201FB12612268303202EBA1
:1059D000411161610020A8E770B50446012500BFB0
:1059E00000BF14B1012C07D100E007E000BF00BFE9
:1059F000FDF750FA054601E0012500BF00BF28462B
:105A000070BD2DE9F04104460D461646042714B139
:105A1000012C07D100E007E031462846FDF7AEFA39
:105A2000074601E0042700BF00BF3846BDE8F0810B
:105A30002DE9F04104460D4616461F464FF0040876
:105A400014B1012C08D100E009E03A46314628465D
:105A5000FDF7B0FA804602E04FF0040800BF00BF37
:105A60004046BDE8F08170B50446012514B1012C13
:105A700005D100E005E0FDF7B5FA054601E0012596
:105A800000BF00BF284670BD2DE9F04105460E4617
:105A900017461C464FF0040814B90420BDE8F081F5
:105AA00015B1012D08D100E009E022463946304603
:105AB000FDF7B2FA804602E04FF0040800BF00BFD5
:105AC0004046EBE770B50546284600F0D4F9044699
:105AD00034B9284601F043F804460CB90020286088
